{
  "_format": "hh-sol-artifact-1",
  "contractName": "VehicleNFT",
  "sourceName": "contracts/VehicleNFT.sol",
  "abi": [
    {
      "inputs": [],
      "stateMutability": "nonpayable",
      "type": "constructor"
    },
    {
      "inputs": [],
      "name": "AccessControlBadConfirmation",
      "type": "error"
    },
    {
      "inputs": [
        {
          "internalType": "address",
          "name": "account",
          "type": "address"
        },
        {
          "internalType": "bytes32",
          "name": "neededRole",
          "type": "bytes32"
        }
      ],
      "name": "AccessControlUnauthorizedAccount",
      "type": "error"
    },
    {
      "inputs": [
        {
          "internalType": "address",
          "name": "sender",
          "type": "address"
        },
        {
          "internalType": "uint256",
          "name": "tokenId",
          "type": "uint256"
        },
        {
          "internalType": "address",
          "name": "owner",
          "type": "address"
        }
      ],
      "name": "ERC721IncorrectOwner",
      "type": "error"
    },
    {
      "inputs": [
        {
          "internalType": "address",
          "name": "operator",
          "type": "address"
        },
        {
          "internalType": "uint256",
          "name": "tokenId",
          "type": "uint256"
        }
      ],
      "name": "ERC721InsufficientApproval",
      "type": "error"
    },
    {
      "inputs": [
        {
          "internalType": "address",
          "name": "approver",
          "type": "address"
        }
      ],
      "name": "ERC721InvalidApprover",
      "type": "error"
    },
    {
      "inputs": [
        {
          "internalType": "address",
          "name": "operator",
          "type": "address"
        }
      ],
      "name": "ERC721InvalidOperator",
      "type": "error"
    },
    {
      "inputs": [
        {
          "internalType": "address",
          "name": "owner",
          "type": "address"
        }
      ],
      "name": "ERC721InvalidOwner",
      "type": "error"
    },
    {
      "inputs": [
        {
          "internalType": "address",
          "name": "receiver",
          "type": "address"
        }
      ],
      "name": "ERC721InvalidReceiver",
      "type": "error"
    },
    {
      "inputs": [
        {
          "internalType": "address",
          "name": "sender",
          "type": "address"
        }
      ],
      "name": "ERC721InvalidSender",
      "type": "error"
    },
    {
      "inputs": [
        {
          "internalType": "uint256",
          "name": "tokenId",
          "type": "uint256"
        }
      ],
      "name": "ERC721NonexistentToken",
      "type": "error"
    },
    {
      "inputs": [],
      "name": "ReentrancyGuardReentrantCall",
      "type": "error"
    },
    {
      "anonymous": false,
      "inputs": [
        {
          "indexed": true,
          "internalType": "address",
          "name": "owner",
          "type": "address"
        },
        {
          "indexed": true,
          "internalType": "address",
          "name": "approved",
          "type": "address"
        },
        {
          "indexed": true,
          "internalType": "uint256",
          "name": "tokenId",
          "type": "uint256"
        }
      ],
      "name": "Approval",
      "type": "event"
    },
    {
      "anonymous": false,
      "inputs": [
        {
          "indexed": true,
          "internalType": "address",
          "name": "owner",
          "type": "address"
        },
        {
          "indexed": true,
          "internalType": "address",
          "name": "operator",
          "type": "address"
        },
        {
          "indexed": false,
          "internalType": "bool",
          "name": "approved",
          "type": "bool"
        }
      ],
      "name": "ApprovalForAll",
      "type": "event"
    },
    {
      "anonymous": false,
      "inputs": [
        {
          "indexed": true,
          "internalType": "bytes32",
          "name": "role",
          "type": "bytes32"
        },
        {
          "indexed": true,
          "internalType": "bytes32",
          "name": "previousAdminRole",
          "type": "bytes32"
        },
        {
          "indexed": true,
          "internalType": "bytes32",
          "name": "newAdminRole",
          "type": "bytes32"
        }
      ],
      "name": "RoleAdminChanged",
      "type": "event"
    },
    {
      "anonymous": false,
      "inputs": [
        {
          "indexed": true,
          "internalType": "bytes32",
          "name": "role",
          "type": "bytes32"
        },
        {
          "indexed": true,
          "internalType": "address",
          "name": "account",
          "type": "address"
        },
        {
          "indexed": true,
          "internalType": "address",
          "name": "sender",
          "type": "address"
        }
      ],
      "name": "RoleGranted",
      "type": "event"
    },
    {
      "anonymous": false,
      "inputs": [
        {
          "indexed": true,
          "internalType": "bytes32",
          "name": "role",
          "type": "bytes32"
        },
        {
          "indexed": true,
          "internalType": "address",
          "name": "account",
          "type": "address"
        },
        {
          "indexed": true,
          "internalType": "address",
          "name": "sender",
          "type": "address"
        }
      ],
      "name": "RoleRevoked",
      "type": "event"
    },
    {
      "anonymous": false,
      "inputs": [
        {
          "indexed": true,
          "internalType": "address",
          "name": "from",
          "type": "address"
        },
        {
          "indexed": true,
          "internalType": "address",
          "name": "to",
          "type": "address"
        },
        {
          "indexed": true,
          "internalType": "uint256",
          "name": "tokenId",
          "type": "uint256"
        }
      ],
      "name": "Transfer",
      "type": "event"
    },
    {
      "anonymous": false,
      "inputs": [
        {
          "indexed": true,
          "internalType": "uint256",
          "name": "tokenId",
          "type": "uint256"
        },
        {
          "indexed": false,
          "internalType": "bool",
          "name": "locked",
          "type": "bool"
        },
        {
          "indexed": false,
          "internalType": "address",
          "name": "changedBy",
          "type": "address"
        }
      ],
      "name": "TransferLockChanged",
      "type": "event"
    },
    {
      "anonymous": false,
      "inputs": [
        {
          "indexed": true,
          "internalType": "uint256",
          "name": "tokenId",
          "type": "uint256"
        },
        {
          "indexed": false,
          "internalType": "bytes32",
          "name": "vinHash",
          "type": "bytes32"
        },
        {
          "indexed": true,
          "internalType": "address",
          "name": "manufacturer",
          "type": "address"
        },
        {
          "indexed": false,
          "internalType": "uint64",
          "name": "manufacturedAt",
          "type": "uint64"
        },
        {
          "indexed": false,
          "internalType": "bytes32",
          "name": "modelHash",
          "type": "bytes32"
        },
        {
          "indexed": false,
          "internalType": "bytes32",
          "name": "specHash",
          "type": "bytes32"
        }
      ],
      "name": "VehicleMinted",
      "type": "event"
    },
    {
      "inputs": [],
      "name": "DEFAULT_ADMIN_ROLE",
      "outputs": [
        {
          "internalType": "bytes32",
          "name": "",
          "type": "bytes32"
        }
      ],
      "stateMutability": "view",
      "type": "function"
    },
    {
      "inputs": [],
      "name": "LIEN_ROLE",
      "outputs": [
        {
          "internalType": "bytes32",
          "name": "",
          "type": "bytes32"
        }
      ],
      "stateMutability": "view",
      "type": "function"
    },
    {
      "inputs": [],
      "name": "MANUFACTURER_ROLE",
      "outputs": [
        {
          "internalType": "bytes32",
          "name": "",
          "type": "bytes32"
        }
      ],
      "stateMutability": "view",
      "type": "function"
    },
    {
      "inputs": [],
      "name": "REGISTRY_ROLE",
      "outputs": [
        {
          "internalType": "bytes32",
          "name": "",
          "type": "bytes32"
        }
      ],
      "stateMutability": "view",
      "type": "function"
    },
    {
      "inputs": [
        {
          "internalType": "address",
          "name": "to",
          "type": "address"
        },
        {
          "internalType": "uint256",
          "name": "tokenId",
          "type": "uint256"
        }
      ],
      "name": "approve",
      "outputs": [],
      "stateMutability": "nonpayable",
      "type": "function"
    },
    {
      "inputs": [
        {
          "internalType": "address",
          "name": "owner",
          "type": "address"
        }
      ],
      "name": "balanceOf",
      "outputs": [
        {
          "internalType": "uint256",
          "name": "",
          "type": "uint256"
        }
      ],
      "stateMutability": "view",
      "type": "function"
    },
    {
      "inputs": [
        {
          "internalType": "uint256",
          "name": "tokenId",
          "type": "uint256"
        }
      ],
      "name": "getApproved",
      "outputs": [
        {
          "internalType": "address",
          "name": "",
          "type": "address"
        }
      ],
      "stateMutability": "view",
      "type": "function"
    },
    {
      "inputs": [
        {
          "internalType": "bytes32",
          "name": "role",
          "type": "bytes32"
        }
      ],
      "name": "getRoleAdmin",
      "outputs": [
        {
          "internalType": "bytes32",
          "name": "",
          "type": "bytes32"
        }
      ],
      "stateMutability": "view",
      "type": "function"
    },
    {
      "inputs": [
        {
          "internalType": "uint256",
          "name": "tokenId",
          "type": "uint256"
        }
      ],
      "name": "getVehicle",
      "outputs": [
        {
          "components": [
            {
              "internalType": "bytes32",
              "name": "vinHash",
              "type": "bytes32"
            },
            {
              "internalType": "address",
              "name": "manufacturerId",
              "type": "address"
            },
            {
              "internalType": "uint64",
              "name": "manufacturedAt",
              "type": "uint64"
            },
            {
              "internalType": "bytes32",
              "name": "modelHash",
              "type": "bytes32"
            },
            {
              "internalType": "bytes32",
              "name": "specHash",
              "type": "bytes32"
            }
          ],
          "internalType": "struct VehicleNFT.VehicleIdentity",
          "name": "",
          "type": "tuple"
        }
      ],
      "stateMutability": "view",
      "type": "function"
    },
    {
      "inputs": [
        {
          "internalType": "bytes32",
          "name": "role",
          "type": "bytes32"
        },
        {
          "internalType": "address",
          "name": "account",
          "type": "address"
        }
      ],
      "name": "grantRole",
      "outputs": [],
      "stateMutability": "nonpayable",
      "type": "function"
    },
    {
      "inputs": [
        {
          "internalType": "bytes32",
          "name": "role",
          "type": "bytes32"
        },
        {
          "internalType": "address",
          "name": "account",
          "type": "address"
        }
      ],
      "name": "hasRole",
      "outputs": [
        {
          "internalType": "bool",
          "name": "",
          "type": "bool"
        }
      ],
      "stateMutability": "view",
      "type": "function"
    },
    {
      "inputs": [
        {
          "internalType": "address",
          "name": "owner",
          "type": "address"
        },
        {
          "internalType": "address",
          "name": "operator",
          "type": "address"
        }
      ],
      "name": "isApprovedForAll",
      "outputs": [
        {
          "internalType": "bool",
          "name": "",
          "type": "bool"
        }
      ],
      "stateMutability": "view",
      "type": "function"
    },
    {
      "inputs": [
        {
          "internalType": "bytes32",
          "name": "vinHash",
          "type": "bytes32"
        }
      ],
      "name": "isVinUsed",
      "outputs": [
        {
          "internalType": "bool",
          "name": "",
          "type": "bool"
        }
      ],
      "stateMutability": "view",
      "type": "function"
    },
    {
      "inputs": [
        {
          "internalType": "address",
          "name": "to",
          "type": "address"
        },
        {
          "internalType": "bytes32",
          "name": "vinHash",
          "type": "bytes32"
        },
        {
          "internalType": "uint64",
          "name": "manufacturedAt",
          "type": "uint64"
        },
        {
          "internalType": "bytes32",
          "name": "modelHash",
          "type": "bytes32"
        },
        {
          "internalType": "bytes32",
          "name": "specHash",
          "type": "bytes32"
        }
      ],
      "name": "mintVehicle",
      "outputs": [
        {
          "internalType": "uint256",
          "name": "tokenId",
          "type": "uint256"
        }
      ],
      "stateMutability": "nonpayable",
      "type": "function"
    },
    {
      "inputs": [],
      "name": "name",
      "outputs": [
        {
          "internalType": "string",
          "name": "",
          "type": "string"
        }
      ],
      "stateMutability": "view",
      "type": "function"
    },
    {
      "inputs": [
        {
          "internalType": "uint256",
          "name": "tokenId",
          "type": "uint256"
        }
      ],
      "name": "ownerOf",
      "outputs": [
        {
          "internalType": "address",
          "name": "",
          "type": "address"
        }
      ],
      "stateMutability": "view",
      "type": "function"
    },
    {
      "inputs": [
        {
          "internalType": "bytes32",
          "name": "role",
          "type": "bytes32"
        },
        {
          "internalType": "address",
          "name": "callerConfirmation",
          "type": "address"
        }
      ],
      "name": "renounceRole",
      "outputs": [],
      "stateMutability": "nonpayable",
      "type": "function"
    },
    {
      "inputs": [
        {
          "internalType": "bytes32",
          "name": "role",
          "type": "bytes32"
        },
        {
          "internalType": "address",
          "name": "account",
          "type": "address"
        }
      ],
      "name": "revokeRole",
      "outputs": [],
      "stateMutability": "nonpayable",
      "type": "function"
    },
    {
      "inputs": [
        {
          "internalType": "address",
          "name": "from",
          "type": "address"
        },
        {
          "internalType": "address",
          "name": "to",
          "type": "address"
        },
        {
          "internalType": "uint256",
          "name": "tokenId",
          "type": "uint256"
        }
      ],
      "name": "safeTransferFrom",
      "outputs": [],
      "stateMutability": "nonpayable",
      "type": "function"
    },
    {
      "inputs": [
        {
          "internalType": "address",
          "name": "from",
          "type": "address"
        },
        {
          "internalType": "address",
          "name": "to",
          "type": "address"
        },
        {
          "internalType": "uint256",
          "name": "tokenId",
          "type": "uint256"
        },
        {
          "internalType": "bytes",
          "name": "data",
          "type": "bytes"
        }
      ],
      "name": "safeTransferFrom",
      "outputs": [],
      "stateMutability": "nonpayable",
      "type": "function"
    },
    {
      "inputs": [
        {
          "internalType": "address",
          "name": "operator",
          "type": "address"
        },
        {
          "internalType": "bool",
          "name": "approved",
          "type": "bool"
        }
      ],
      "name": "setApprovalForAll",
      "outputs": [],
      "stateMutability": "nonpayable",
      "type": "function"
    },
    {
      "inputs": [
        {
          "internalType": "uint256",
          "name": "tokenId",
          "type": "uint256"
        },
        {
          "internalType": "bool",
          "name": "locked",
          "type": "bool"
        }
      ],
      "name": "setTransferLock",
      "outputs": [],
      "stateMutability": "nonpayable",
      "type": "function"
    },
    {
      "inputs": [
        {
          "internalType": "bytes4",
          "name": "interfaceId",
          "type": "bytes4"
        }
      ],
      "name": "supportsInterface",
      "outputs": [
        {
          "internalType": "bool",
          "name": "",
          "type": "bool"
        }
      ],
      "stateMutability": "view",
      "type": "function"
    },
    {
      "inputs": [],
      "name": "symbol",
      "outputs": [
        {
          "internalType": "string",
          "name": "",
          "type": "string"
        }
      ],
      "stateMutability": "view",
      "type": "function"
    },
    {
      "inputs": [
        {
          "internalType": "uint256",
          "name": "tokenId",
          "type": "uint256"
        }
      ],
      "name": "tokenURI",
      "outputs": [
        {
          "internalType": "string",
          "name": "",
          "type": "string"
        }
      ],
      "stateMutability": "view",
      "type": "function"
    },
    {
      "inputs": [
        {
          "internalType": "address",
          "name": "from",
          "type": "address"
        },
        {
          "internalType": "address",
          "name": "to",
          "type": "address"
        },
        {
          "internalType": "uint256",
          "name": "tokenId",
          "type": "uint256"
        }
      ],
      "name": "transferFrom",
      "outputs": [],
      "stateMutability": "nonpayable",
      "type": "function"
    },
    {
      "inputs": [
        {
          "internalType": "uint256",
          "name": "",
          "type": "uint256"
        }
      ],
      "name": "transferLocked",
      "outputs": [
        {
          "internalType": "bool",
          "name": "",
          "type": "bool"
        }
      ],
      "stateMutability": "view",
      "type": "function"
    },
    {
      "inputs": [
        {
          "internalType": "uint256",
          "name": "",
          "type": "uint256"
        }
      ],
      "name": "vehicles",
      "outputs": [
        {
          "internalType": "bytes32",
          "name": "vinHash",
          "type": "bytes32"
        },
        {
          "internalType": "address",
          "name": "manufacturerId",
          "type": "address"
        },
        {
          "internalType": "uint64",
          "name": "manufacturedAt",
          "type": "uint64"
        },
        {
          "internalType": "bytes32",
          "name": "modelHash",
          "type": "bytes32"
        },
        {
          "internalType": "bytes32",
          "name": "specHash",
          "type": "bytes32"
        }
      ],
      "stateMutability": "view",
      "type": "function"
    }
  ],
  "bytecode": "0x60806040523480156200001157600080fd5b506040518060400160405280600a81526020017f56656869636c654e4654000000000000000000000000000000000000000000008152506040518060400160405280600481526020017f564e46540000000000000000000000000000000000000000000000000000000081525081600090816200008f9190620004b9565b508060019081620000a19190620004b9565b5050506001600781905550620000c16000801b33620000c860201b60201c565b50620005a0565b6000620000dc8383620001cc60201b60201c565b620001c15760016006600085815260200190815260200160002060000160008473ffffffffffffffffffffffffffffffffffffffff1673ffffffffffffffffffffffffffffffffffffffff16815260200190815260200160002060006101000a81548160ff0219169083151502179055506200015d6200023760201b60201c565b73ffffffffffffffffffffffffffffffffffffffff168273ffffffffffffffffffffffffffffffffffffffff16847f2f8788117e7eff1d82e926ec794901d17c78024a50270940304540a733656f0d60405160405180910390a460019050620001c6565b600090505b92915050565b60006006600084815260200190815260200160002060000160008373ffffffffffffffffffffffffffffffffffffffff1673ffffffffffffffffffffffffffffffffffffffff16815260200190815260200160002060009054906101000a900460ff16905092915050565b600033905090565b600081519050919050565b7f4e487b7100000000000000000000000000000000000000000000000000000000600052604160045260246000fd5b7f4e487b7100000000000000000000000000000000000000000000000000000000600052602260045260246000fd5b60006002820490506001821680620002c157607f821691505b602082108103620002d757620002d662000279565b5b50919050565b60008190508160005260206000209050919050565b60006020601f8301049050919050565b600082821b905092915050565b600060088302620003417fffffffffffffffffffffffffffffffffffffffffffffffffffffffffffffffff8262000302565b6200034d868362000302565b95508019841693508086168417925050509392505050565b6000819050919050565b6000819050919050565b60006200039a620003946200038e8462000365565b6200036f565b62000365565b9050919050565b6000819050919050565b620003b68362000379565b620003ce620003c582620003a1565b8484546200030f565b825550505050565b600090565b620003e5620003d6565b620003f2818484620003ab565b505050565b5b818110156200041a576200040e600082620003db565b600181019050620003f8565b5050565b601f82111562000469576200043381620002dd565b6200043e84620002f2565b810160208510156200044e578190505b620004666200045d85620002f2565b830182620003f7565b50505b505050565b600082821c905092915050565b60006200048e600019846008026200046e565b1980831691505092915050565b6000620004a983836200047b565b9150826002028217905092915050565b620004c4826200023f565b67ffffffffffffffff811115620004e057620004df6200024a565b5b620004ec8254620002a8565b620004f98282856200041e565b600060209050601f8311600181146200053157600084156200051c578287015190505b6200052885826200049b565b86555062000598565b601f1984166200054186620002dd565b60005b828110156200056b5784890151825560018201915060208501945060208101905062000544565b868310156200058b578489015162000587601f8916826200047b565b8355505b6001600288020188555050505b505050505050565b61315380620005b06000396000f3fe608060405234801561001057600080fd5b50600436106101c45760003560e01c8063902c429a116100f9578063b88d4fde11610097578063d547741f11610071578063d547741f14610541578063df7ebb7b1461055d578063e00a4d221461058d578063e985e9c5146105bd576101c4565b8063b88d4fde146104c1578063b8ba95fa146104dd578063c87b56dd14610511576101c4565b8063965288b0116100d3578063965288b014610439578063a217fddf14610457578063a22cb46514610475578063b304bfb314610491576101c4565b8063902c429a146103bb57806391d14854146103eb57806395d89b411461041b576101c4565b80632f2ff15d1161016657806342f1e8791161014057806342f1e8791461031f5780636352211e1461033d57806370a082311461036d57806370f53af31461039d576101c4565b80632f2ff15d146102cb57806336568abe146102e757806342842e0e14610303576101c4565b8063095ea7b3116101a2578063095ea7b31461024757806320d4ab5a1461026357806323b872dd1461027f578063248a9ca31461029b576101c4565b806301ffc9a7146101c957806306fdde03146101f9578063081812fc14610217575b600080fd5b6101e360048036038101906101de9190612405565b6105ed565b6040516101f0919061244d565b60405180910390f35b6102016105ff565b60405161020e91906124f8565b60405180910390f35b610231600480360381019061022c9190612550565b610691565b60405161023e91906125be565b60405180910390f35b610261600480360381019061025c9190612605565b6106ad565b005b61027d60048036038101906102789190612671565b6106c3565b005b610299600480360381019061029491906126b1565b6107c6565b005b6102b560048036038101906102b0919061273a565b6108c8565b6040516102c29190612776565b60405180910390f35b6102e560048036038101906102e09190612791565b6108e8565b005b61030160048036038101906102fc9190612791565b61090a565b005b61031d600480360381019061031891906126b1565b610985565b005b6103276109a5565b6040516103349190612776565b60405180910390f35b61035760048036038101906103529190612550565b6109c9565b60405161036491906125be565b60405180910390f35b610387600480360381019061038291906127d1565b6109db565b604051610394919061280d565b60405180910390f35b6103a5610a95565b6040516103b29190612776565b60405180910390f35b6103d560048036038101906103d09190612868565b610ab9565b6040516103e2919061280d565b60405180910390f35b61040560048036038101906104009190612791565b610ce5565b604051610412919061244d565b60405180910390f35b610423610d50565b60405161043091906124f8565b60405180910390f35b610441610de2565b60405161044e9190612776565b60405180910390f35b61045f610e06565b60405161046c9190612776565b60405180910390f35b61048f600480360381019061048a91906128e3565b610e0d565b005b6104ab60048036038101906104a6919061273a565b610e23565b6040516104b8919061244d565b60405180910390f35b6104db60048036038101906104d69190612a58565b610e4d565b005b6104f760048036038101906104f29190612550565b610e72565b604051610508959493929190612aea565b60405180910390f35b61052b60048036038101906105269190612550565b610edc565b60405161053891906124f8565b60405180910390f35b61055b60048036038101906105569190612791565b610f45565b005b61057760048036038101906105729190612550565b610f67565b6040516105849190612bd2565b60405180910390f35b6105a760048036038101906105a29190612550565b6110b1565b6040516105b4919061244d565b60405180910390f35b6105d760048036038101906105d29190612bed565b6110d1565b6040516105e4919061244d565b60405180910390f35b60006105f882611165565b9050919050565b60606000805461060e90612c5c565b80601f016020809104026020016040519081016040528092919081815260200182805461063a90612c5c565b80156106875780601f1061065c57610100808354040283529160200191610687565b820191906000526020600020905b81548152906001019060200180831161066a57829003601f168201915b5050505050905090565b600061069c826111df565b506106a682611267565b9050919050565b6106bf82826106ba6112a4565b6112ac565b5050565b6106ed7fc2979137d1774e40fe2638d355bf7a7b092be4c67f242aad1655e1e27f9df9cc33610ce5565b8061071e575061071d7fe86ff5630e5593b35d154c04685cdd5ea34956d01bddb98109f9a2c6a8f618e933610ce5565b5b61075d576040517f08c379a000000000000000000000000000000000000000000000000000000000815260040161075490612cd9565b60405180910390fd5b80600b600084815260200190815260200160002060006101000a81548160ff021916908315150217905550817fc2abc7a49e161e0f878aecddc45835fa2fd02e8453e20945375cdeabcdb671db82336040516107ba929190612cf9565b60405180910390a25050565b600073ffffffffffffffffffffffffffffffffffffffff168273ffffffffffffffffffffffffffffffffffffffff16036108385760006040517f64a0ae9200000000000000000000000000000000000000000000000000000000815260040161082f91906125be565b60405180910390fd5b600061084c83836108476112a4565b6112be565b90508373ffffffffffffffffffffffffffffffffffffffff168173ffffffffffffffffffffffffffffffffffffffff16146108c2578382826040517f64283d7b0000000000000000000000000000000000000000000000000000000081526004016108b993929190612d22565b60405180910390fd5b50505050565b600060066000838152602001908152602001600020600101549050919050565b6108f1826108c8565b6108fa81611377565b610904838361138b565b50505050565b6109126112a4565b73ffffffffffffffffffffffffffffffffffffffff168173ffffffffffffffffffffffffffffffffffffffff1614610976576040517f6697b23200000000000000000000000000000000000000000000000000000000815260040160405180910390fd5b610980828261147d565b505050565b6109a083838360405180602001604052806000815250610e4d565b505050565b7fc2979137d1774e40fe2638d355bf7a7b092be4c67f242aad1655e1e27f9df9cc81565b60006109d4826111df565b9050919050565b60008073ffffffffffffffffffffffffffffffffffffffff168273ffffffffffffffffffffffffffffffffffffffff1603610a4e5760006040517f89c62b64000000000000000000000000000000000000000000000000000000008152600401610a4591906125be565b60405180910390fd5b600360008373ffffffffffffffffffffffffffffffffffffffff1673ffffffffffffffffffffffffffffffffffffffff168152602001908152602001600020549050919050565b7fe86ff5630e5593b35d154c04685cdd5ea34956d01bddb98109f9a2c6a8f618e981565b60007feefb95e842a3287179d933b4460be539a1d5af11aa8b325bb45c5c8dc92de4ed610ae581611377565b600a600087815260200190815260200160002060009054906101000a900460ff1615610b46576040517f08c379a0000000000000000000000000000000000000000000000000000000008152600401610b3d90612da5565b60405180910390fd5b60086000815480929190610b5990612df4565b919050559150610b698783611570565b6040518060a001604052808781526020013373ffffffffffffffffffffffffffffffffffffffff1681526020018667ffffffffffffffff16815260200185815260200184815250600960008481526020019081526020016000206000820151816000015560208201518160010160006101000a81548173ffffffffffffffffffffffffffffffffffffffff021916908373ffffffffffffffffffffffffffffffffffffffff16021790555060408201518160010160146101000a81548167ffffffffffffffff021916908367ffffffffffffffff16021790555060608201518160020155608082015181600301559050506001600a600088815260200190815260200160002060006101000a81548160ff0219169083151502179055503373ffffffffffffffffffffffffffffffffffffffff16827fc3b310e970449066fcc1abf8553fe3e0c0713e5a2ab6acf810c3280068afd14a88888888604051610cd39493929190612e3c565b60405180910390a35095945050505050565b60006006600084815260200190815260200160002060000160008373ffffffffffffffffffffffffffffffffffffffff1673ffffffffffffffffffffffffffffffffffffffff16815260200190815260200160002060009054906101000a900460ff16905092915050565b606060018054610d5f90612c5c565b80601f0160208091040260200160405190810160405280929190818152602001828054610d8b90612c5c565b8015610dd85780601f10610dad57610100808354040283529160200191610dd8565b820191906000526020600020905b815481529060010190602001808311610dbb57829003601f168201915b5050505050905090565b7feefb95e842a3287179d933b4460be539a1d5af11aa8b325bb45c5c8dc92de4ed81565b6000801b81565b610e1f610e186112a4565b838361158e565b5050565b6000600a600083815260200190815260200160002060009054906101000a900460ff169050919050565b610e588484846107c6565b610e6c610e636112a4565b858585856116fd565b50505050565b60096020528060005260406000206000915090508060000154908060010160009054906101000a900473ffffffffffffffffffffffffffffffffffffffff16908060010160149054906101000a900467ffffffffffffffff16908060020154908060030154905085565b6060610ee7826111df565b506000610ef26118ae565b90506000815111610f125760405180602001604052806000815250610f3d565b80610f1c846118c5565b604051602001610f2d929190612ebd565b6040516020818303038152906040525b915050919050565b610f4e826108c8565b610f5781611377565b610f61838361147d565b50505050565b610f6f612341565b600073ffffffffffffffffffffffffffffffffffffffff16610f9083611993565b73ffffffffffffffffffffffffffffffffffffffff1603610fe6576040517f08c379a0000000000000000000000000000000000000000000000000000000008152600401610fdd90612f2d565b60405180910390fd5b600960008381526020019081526020016000206040518060a0016040529081600082015481526020016001820160009054906101000a900473ffffffffffffffffffffffffffffffffffffffff1673ffffffffffffffffffffffffffffffffffffffff1673ffffffffffffffffffffffffffffffffffffffff1681526020016001820160149054906101000a900467ffffffffffffffff1667ffffffffffffffff1667ffffffffffffffff168152602001600282015481526020016003820154815250509050919050565b600b6020528060005260406000206000915054906101000a900460ff1681565b6000600560008473ffffffffffffffffffffffffffffffffffffffff1673ffffffffffffffffffffffffffffffffffffffff16815260200190815260200160002060008373ffffffffffffffffffffffffffffffffffffffff1673ffffffffffffffffffffffffffffffffffffffff16815260200190815260200160002060009054906101000a900460ff16905092915050565b60007f7965db0b000000000000000000000000000000000000000000000000000000007bffffffffffffffffffffffffffffffffffffffffffffffffffffffff1916827bffffffffffffffffffffffffffffffffffffffffffffffffffffffff191614806111d857506111d7826119d0565b5b9050919050565b6000806111eb83611993565b9050600073ffffffffffffffffffffffffffffffffffffffff168173ffffffffffffffffffffffffffffffffffffffff160361125e57826040517f7e273289000000000000000000000000000000000000000000000000000000008152600401611255919061280d565b60405180910390fd5b80915050919050565b60006004600083815260200190815260200160002060009054906101000a900473ffffffffffffffffffffffffffffffffffffffff169050919050565b600033905090565b6112b98383836001611ab2565b505050565b6000806112ca84611993565b9050600073ffffffffffffffffffffffffffffffffffffffff168173ffffffffffffffffffffffffffffffffffffffff161461136257600b600085815260200190815260200160002060009054906101000a900460ff1615611361576040517f08c379a000000000000000000000000000000000000000000000000000000000815260040161135890612f99565b60405180910390fd5b5b61136d858585611c77565b9150509392505050565b611388816113836112a4565b611e91565b50565b60006113978383610ce5565b6114725760016006600085815260200190815260200160002060000160008473ffffffffffffffffffffffffffffffffffffffff1673ffffffffffffffffffffffffffffffffffffffff16815260200190815260200160002060006101000a81548160ff02191690831515021790555061140f6112a4565b73ffffffffffffffffffffffffffffffffffffffff168273ffffffffffffffffffffffffffffffffffffffff16847f2f8788117e7eff1d82e926ec794901d17c78024a50270940304540a733656f0d60405160405180910390a460019050611477565b600090505b92915050565b60006114898383610ce5565b156115655760006006600085815260200190815260200160002060000160008473ffffffffffffffffffffffffffffffffffffffff1673ffffffffffffffffffffffffffffffffffffffff16815260200190815260200160002060006101000a81548160ff0219169083151502179055506115026112a4565b73ffffffffffffffffffffffffffffffffffffffff168273ffffffffffffffffffffffffffffffffffffffff16847ff6391f5c32d9c69d2a47ea670b442974b53935d1edc7fd64eb21e047a839171b60405160405180910390a46001905061156a565b600090505b92915050565b61158a828260405180602001604052806000815250611ee2565b5050565b600073ffffffffffffffffffffffffffffffffffffffff168273ffffffffffffffffffffffffffffffffffffffff16036115ff57816040517f5b08ba180000000000000000000000000000000000000000000000000000000081526004016115f691906125be565b60405180910390fd5b80600560008573ffffffffffffffffffffffffffffffffffffffff1673ffffffffffffffffffffffffffffffffffffffff16815260200190815260200160002060008473ffffffffffffffffffffffffffffffffffffffff1673ffffffffffffffffffffffffffffffffffffffff16815260200190815260200160002060006101000a81548160ff0219169083151502179055508173ffffffffffffffffffffffffffffffffffffffff168373ffffffffffffffffffffffffffffffffffffffff167f17307eab39ab6107e8899845ad3d59bd9653f200f220920489ca2b5937696c31836040516116f0919061244d565b60405180910390a3505050565b60008373ffffffffffffffffffffffffffffffffffffffff163b11156118a7578273ffffffffffffffffffffffffffffffffffffffff1663150b7a02868685856040518563ffffffff1660e01b815260040161175c949392919061300e565b6020604051808303816000875af192505050801561179857506040513d601f19601f82011682018060405250810190611795919061306f565b60015b61181c573d80600081146117c8576040519150601f19603f3d011682016040523d82523d6000602084013e6117cd565b606091505b50600081510361181457836040517f64a0ae9200000000000000000000000000000000000000000000000000000000815260040161180b91906125be565b60405180910390fd5b805160208201fd5b63150b7a0260e01b7bffffffffffffffffffffffffffffffffffffffffffffffffffffffff1916817bffffffffffffffffffffffffffffffffffffffffffffffffffffffff1916146118a557836040517f64a0ae9200000000000000000000000000000000000000000000000000000000815260040161189c91906125be565b60405180910390fd5b505b5050505050565b606060405180602001604052806000815250905090565b6060600060016118d484611f06565b01905060008167ffffffffffffffff8111156118f3576118f261292d565b5b6040519080825280601f01601f1916602001820160405280156119255781602001600182028036833780820191505090505b509050600082602083010190505b600115611988578080600190039150507f3031323334353637383961626364656600000000000000000000000000000000600a86061a8153600a858161197c5761197b61309c565b5b04945060008503611933575b819350505050919050565b60006002600083815260200190815260200160002060009054906101000a900473ffffffffffffffffffffffffffffffffffffffff169050919050565b60007f80ac58cd000000000000000000000000000000000000000000000000000000007bffffffffffffffffffffffffffffffffffffffffffffffffffffffff1916827bffffffffffffffffffffffffffffffffffffffffffffffffffffffff19161480611a9b57507f5b5e139f000000000000000000000000000000000000000000000000000000007bffffffffffffffffffffffffffffffffffffffffffffffffffffffff1916827bffffffffffffffffffffffffffffffffffffffffffffffffffffffff1916145b80611aab5750611aaa82612059565b5b9050919050565b8080611aeb5750600073ffffffffffffffffffffffffffffffffffffffff168273ffffffffffffffffffffffffffffffffffffffff1614155b15611c1f576000611afb846111df565b9050600073ffffffffffffffffffffffffffffffffffffffff168373ffffffffffffffffffffffffffffffffffffffff1614158015611b6657508273ffffffffffffffffffffffffffffffffffffffff168173ffffffffffffffffffffffffffffffffffffffff1614155b8015611b795750611b7781846110d1565b155b15611bbb57826040517fa9fbf51f000000000000000000000000000000000000000000000000000000008152600401611bb291906125be565b60405180910390fd5b8115611c1d57838573ffffffffffffffffffffffffffffffffffffffff168273ffffffffffffffffffffffffffffffffffffffff167f8c5be1e5ebec7d5bd14f71427d1e84f3dd0314c0f7b2291e5b200ac8c7c3b92560405160405180910390a45b505b836004600085815260200190815260200160002060006101000a81548173ffffffffffffffffffffffffffffffffffffffff021916908373ffffffffffffffffffffffffffffffffffffffff16021790555050505050565b600080611c8384611993565b9050600073ffffffffffffffffffffffffffffffffffffffff168373ffffffffffffffffffffffffffffffffffffffff1614611cc557611cc48184866120c3565b5b600073ffffffffffffffffffffffffffffffffffffffff168173ffffffffffffffffffffffffffffffffffffffff1614611d5657611d07600085600080611ab2565b6001600360008373ffffffffffffffffffffffffffffffffffffffff1673ffffffffffffffffffffffffffffffffffffffff168152602001908152602001600020600082825403925050819055505b600073ffffffffffffffffffffffffffffffffffffffff168573ffffffffffffffffffffffffffffffffffffffff1614611dd9576001600360008773ffffffffffffffffffffffffffffffffffffffff1673ffffffffffffffffffffffffffffffffffffffff168152602001908152602001600020600082825401925050819055505b846002600086815260200190815260200160002060006101000a81548173ffffffffffffffffffffffffffffffffffffffff021916908373ffffffffffffffffffffffffffffffffffffffff160217905550838573ffffffffffffffffffffffffffffffffffffffff168273ffffffffffffffffffffffffffffffffffffffff167fddf252ad1be2c89b69c2b068fc378daa952ba7f163c4a11628f55a4df523b3ef60405160405180910390a4809150509392505050565b611e9b8282610ce5565b611ede5780826040517fe2517d3f000000000000000000000000000000000000000000000000000000008152600401611ed59291906130cb565b60405180910390fd5b5050565b611eec8383612187565b611f01611ef76112a4565b60008585856116fd565b505050565b600080600090507a184f03e93ff9f4daa797ed6e38ed64bf6a1f0100000000000000008310611f64577a184f03e93ff9f4daa797ed6e38ed64bf6a1f0100000000000000008381611f5a57611f5961309c565b5b0492506040810190505b6d04ee2d6d415b85acef81000000008310611fa1576d04ee2d6d415b85acef81000000008381611f9757611f9661309c565b5b0492506020810190505b662386f26fc100008310611fd057662386f26fc100008381611fc657611fc561309c565b5b0492506010810190505b6305f5e1008310611ff9576305f5e1008381611fef57611fee61309c565b5b0492506008810190505b612710831061201e5761271083816120145761201361309c565b5b0492506004810190505b6064831061204157606483816120375761203661309c565b5b0492506002810190505b600a8310612050576001810190505b80915050919050565b60007f01ffc9a7000000000000000000000000000000000000000000000000000000007bffffffffffffffffffffffffffffffffffffffffffffffffffffffff1916827bffffffffffffffffffffffffffffffffffffffffffffffffffffffff1916149050919050565b6120ce838383612280565b61218257600073ffffffffffffffffffffffffffffffffffffffff168373ffffffffffffffffffffffffffffffffffffffff160361214357806040517f7e27328900000000000000000000000000000000000000000000000000000000815260040161213a919061280d565b60405180910390fd5b81816040517f177e802f0000000000000000000000000000000000000000000000000000000081526004016121799291906130f4565b60405180910390fd5b505050565b600073ffffffffffffffffffffffffffffffffffffffff168273ffffffffffffffffffffffffffffffffffffffff16036121f95760006040517f64a0ae920000000000000000000000000000000000000000000000000000000081526004016121f091906125be565b60405180910390fd5b6000612207838360006112be565b9050600073ffffffffffffffffffffffffffffffffffffffff168173ffffffffffffffffffffffffffffffffffffffff161461227b5760006040517f73c6ac6e00000000000000000000000000000000000000000000000000000000815260040161227291906125be565b60405180910390fd5b505050565b60008073ffffffffffffffffffffffffffffffffffffffff168373ffffffffffffffffffffffffffffffffffffffff161415801561233857508273ffffffffffffffffffffffffffffffffffffffff168473ffffffffffffffffffffffffffffffffffffffff1614806122f957506122f884846110d1565b5b8061233757508273ffffffffffffffffffffffffffffffffffffffff1661231f83611267565b73ffffffffffffffffffffffffffffffffffffffff16145b5b90509392505050565b6040518060a0016040528060008019168152602001600073ffffffffffffffffffffffffffffffffffffffff168152602001600067ffffffffffffffff16815260200160008019168152602001600080191681525090565b6000604051905090565b600080fd5b600080fd5b60007fffffffff0000000000000000000000000000000000000000000000000000000082169050919050565b6123e2816123ad565b81146123ed57600080fd5b50565b6000813590506123ff816123d9565b92915050565b60006020828403121561241b5761241a6123a3565b5b6000612429848285016123f0565b91505092915050565b60008115159050919050565b61244781612432565b82525050565b6000602082019050612462600083018461243e565b92915050565b600081519050919050565b600082825260208201905092915050565b60005b838110156124a2578082015181840152602081019050612487565b60008484015250505050565b6000601f19601f8301169050919050565b60006124ca82612468565b6124d48185612473565b93506124e4818560208601612484565b6124ed816124ae565b840191505092915050565b6000602082019050818103600083015261251281846124bf565b905092915050565b6000819050919050565b61252d8161251a565b811461253857600080fd5b50565b60008135905061254a81612524565b92915050565b600060208284031215612566576125656123a3565b5b60006125748482850161253b565b91505092915050565b600073ffffffffffffffffffffffffffffffffffffffff82169050919050565b60006125a88261257d565b9050919050565b6125b88161259d565b82525050565b60006020820190506125d360008301846125af565b92915050565b6125e28161259d565b81146125ed57600080fd5b50565b6000813590506125ff816125d9565b92915050565b6000806040838503121561261c5761261b6123a3565b5b600061262a858286016125f0565b925050602061263b8582860161253b565b9150509250929050565b61264e81612432565b811461265957600080fd5b50565b60008135905061266b81612645565b92915050565b60008060408385031215612688576126876123a3565b5b60006126968582860161253b565b92505060206126a78582860161265c565b9150509250929050565b6000806000606084860312156126ca576126c96123a3565b5b60006126d8868287016125f0565b93505060206126e9868287016125f0565b92505060406126fa8682870161253b565b9150509250925092565b6000819050919050565b61271781612704565b811461272257600080fd5b50565b6000813590506127348161270e565b92915050565b6000602082840312156127505761274f6123a3565b5b600061275e84828501612725565b91505092915050565b61277081612704565b82525050565b600060208201905061278b6000830184612767565b92915050565b600080604083850312156127a8576127a76123a3565b5b60006127b685828601612725565b92505060206127c7858286016125f0565b9150509250929050565b6000602082840312156127e7576127e66123a3565b5b60006127f5848285016125f0565b91505092915050565b6128078161251a565b82525050565b600060208201905061282260008301846127fe565b92915050565b600067ffffffffffffffff82169050919050565b61284581612828565b811461285057600080fd5b50565b6000813590506128628161283c565b92915050565b600080600080600060a08688031215612884576128836123a3565b5b6000612892888289016125f0565b95505060206128a388828901612725565b94505060406128b488828901612853565b93505060606128c588828901612725565b92505060806128d688828901612725565b9150509295509295909350565b600080604083850312156128fa576128f96123a3565b5b6000612908858286016125f0565b92505060206129198582860161265c565b9150509250929050565b600080fd5b600080fd5b7f4e487b7100000000000000000000000000000000000000000000000000000000600052604160045260246000fd5b612965826124ae565b810181811067ffffffffffffffff821117156129845761298361292d565b5b80604052505050565b6000612997612399565b90506129a3828261295c565b919050565b600067ffffffffffffffff8211156129c3576129c261292d565b5b6129cc826124ae565b9050602081019050919050565b82818337600083830152505050565b60006129fb6129f6846129a8565b61298d565b905082815260208101848484011115612a1757612a16612928565b5b612a228482856129d9565b509392505050565b600082601f830112612a3f57612a3e612923565b5b8135612a4f8482602086016129e8565b91505092915050565b60008060008060808587031215612a7257612a716123a3565b5b6000612a80878288016125f0565b9450506020612a91878288016125f0565b9350506040612aa28782880161253b565b925050606085013567ffffffffffffffff811115612ac357612ac26123a8565b5b612acf87828801612a2a565b91505092959194509250565b612ae481612828565b82525050565b600060a082019050612aff6000830188612767565b612b0c60208301876125af565b612b196040830186612adb565b612b266060830185612767565b612b336080830184612767565b9695505050505050565b612b4681612704565b82525050565b612b558161259d565b82525050565b612b6481612828565b82525050565b60a082016000820151612b806000850182612b3d565b506020820151612b936020850182612b4c565b506040820151612ba66040850182612b5b565b506060820151612bb96060850182612b3d565b506080820151612bcc6080850182612b3d565b50505050565b600060a082019050612be76000830184612b6a565b92915050565b60008060408385031215612c0457612c036123a3565b5b6000612c12858286016125f0565b9250506020612c23858286016125f0565b9150509250929050565b7f4e487b7100000000000000000000000000000000000000000000000000000000600052602260045260246000fd5b60006002820490506001821680612c7457607f821691505b602082108103612c8757612c86612c2d565b5b50919050565b7f4e6f7420617574686f72697a656420746f206368616e6765206c6f636b000000600082015250565b6000612cc3601d83612473565b9150612cce82612c8d565b602082019050919050565b60006020820190508181036000830152612cf281612cb6565b9050919050565b6000604082019050612d0e600083018561243e565b612d1b60208301846125af565b9392505050565b6000606082019050612d3760008301866125af565b612d4460208301856127fe565b612d5160408301846125af565b949350505050565b7f56494e20616c7265616479207265676973746572656400000000000000000000600082015250565b6000612d8f601683612473565b9150612d9a82612d59565b602082019050919050565b60006020820190508181036000830152612dbe81612d82565b9050919050565b7f4e487b7100000000000000000000000000000000000000000000000000000000600052601160045260246000fd5b6000612dff8261251a565b91507fffffffffffffffffffffffffffffffffffffffffffffffffffffffffffffffff8203612e3157612e30612dc5565b5b600182019050919050565b6000608082019050612e516000830187612767565b612e5e6020830186612adb565b612e6b6040830185612767565b612e786060830184612767565b95945050505050565b600081905092915050565b6000612e9782612468565b612ea18185612e81565b9350612eb1818560208601612484565b80840191505092915050565b6000612ec98285612e8c565b9150612ed58284612e8c565b91508190509392505050565b7f56656869636c6520646f6573206e6f7420657869737400000000000000000000600082015250565b6000612f17601683612473565b9150612f2282612ee1565b602082019050919050565b60006020820190508181036000830152612f4681612f0a565b9050919050565b7f5472616e73666572206973206c6f636b65640000000000000000000000000000600082015250565b6000612f83601283612473565b9150612f8e82612f4d565b602082019050919050565b60006020820190508181036000830152612fb281612f76565b9050919050565b600081519050919050565b600082825260208201905092915050565b6000612fe082612fb9565b612fea8185612fc4565b9350612ffa818560208601612484565b613003816124ae565b840191505092915050565b600060808201905061302360008301876125af565b61303060208301866125af565b61303d60408301856127fe565b818103606083015261304f8184612fd5565b905095945050505050565b600081519050613069816123d9565b92915050565b600060208284031215613085576130846123a3565b5b60006130938482850161305a565b91505092915050565b7f4e487b7100000000000000000000000000000000000000000000000000000000600052601260045260246000fd5b60006040820190506130e060008301856125af565b6130ed6020830184612767565b9392505050565b600060408201905061310960008301856125af565b61311660208301846127fe565b939250505056fea2646970667358221220b388ec397c88e70f5269ba76fecbc666d20f562e7e26be46f815c16431efa01e64736f6c63430008140033",
  "linkReferences": {},
  "deployedLinkReferences": {}
}