{
  "_format": "hh-sol-artifact-1",
  "contractName": "VehicleRegistry",
  "sourceName": "contracts/VehicleRegistry.sol",
  "abi": [
    {
      "inputs": [
        {
          "internalType": "address",
          "name": "_vehicleNFT",
          "type": "address"
        }
      ],
      "stateMutability": "nonpayable",
      "type": "constructor"
    },
    {
      "inputs": [],
      "name": "AccessControlBadConfirmation",
      "type": "error"
    },
    {
      "inputs": [
        {
          "internalType": "address",
          "name": "account",
          "type": "address"
        },
        {
          "internalType": "bytes32",
          "name": "neededRole",
          "type": "bytes32"
        }
      ],
      "name": "AccessControlUnauthorizedAccount",
      "type": "error"
    },
    {
      "anonymous": false,
      "inputs": [
        {
          "indexed": true,
          "internalType": "uint256",
          "name": "tokenId",
          "type": "uint256"
        },
        {
          "indexed": false,
          "internalType": "uint64",
          "name": "newFlags",
          "type": "uint64"
        },
        {
          "indexed": false,
          "internalType": "address",
          "name": "source",
          "type": "address"
        },
        {
          "indexed": false,
          "internalType": "bytes32",
          "name": "refHash",
          "type": "bytes32"
        }
      ],
      "name": "FlagUpdated",
      "type": "event"
    },
    {
      "anonymous": false,
      "inputs": [
        {
          "indexed": true,
          "internalType": "uint256",
          "name": "tokenId",
          "type": "uint256"
        },
        {
          "indexed": false,
          "internalType": "address",
          "name": "station",
          "type": "address"
        },
        {
          "indexed": false,
          "internalType": "uint8",
          "name": "result",
          "type": "uint8"
        },
        {
          "indexed": false,
          "internalType": "bytes32",
          "name": "metricsHash",
          "type": "bytes32"
        },
        {
          "indexed": false,
          "internalType": "bytes32",
          "name": "certHash",
          "type": "bytes32"
        },
        {
          "indexed": false,
          "internalType": "uint64",
          "name": "issuedAt",
          "type": "uint64"
        }
      ],
      "name": "InspectionRecorded",
      "type": "event"
    },
    {
      "anonymous": false,
      "inputs": [
        {
          "indexed": true,
          "internalType": "uint256",
          "name": "tokenId",
          "type": "uint256"
        },
        {
          "indexed": false,
          "internalType": "bytes32",
          "name": "plateNoHash",
          "type": "bytes32"
        },
        {
          "indexed": false,
          "internalType": "uint16",
          "name": "provinceCode",
          "type": "uint16"
        },
        {
          "indexed": false,
          "internalType": "enum VehicleRegistry.PlateEvent",
          "name": "eventType",
          "type": "uint8"
        },
        {
          "indexed": false,
          "internalType": "bytes32",
          "name": "docHash",
          "type": "bytes32"
        },
        {
          "indexed": false,
          "internalType": "uint64",
          "name": "effectiveAt",
          "type": "uint64"
        }
      ],
      "name": "PlateEventRecorded",
      "type": "event"
    },
    {
      "anonymous": false,
      "inputs": [
        {
          "indexed": true,
          "internalType": "uint256",
          "name": "tokenId",
          "type": "uint256"
        },
        {
          "indexed": false,
          "internalType": "enum VehicleRegistry.RegStatus",
          "name": "newStatus",
          "type": "uint8"
        }
      ],
      "name": "RegistrationStatusChanged",
      "type": "event"
    },
    {
      "anonymous": false,
      "inputs": [
        {
          "indexed": true,
          "internalType": "bytes32",
          "name": "role",
          "type": "bytes32"
        },
        {
          "indexed": true,
          "internalType": "bytes32",
          "name": "previousAdminRole",
          "type": "bytes32"
        },
        {
          "indexed": true,
          "internalType": "bytes32",
          "name": "newAdminRole",
          "type": "bytes32"
        }
      ],
      "name": "RoleAdminChanged",
      "type": "event"
    },
    {
      "anonymous": false,
      "inputs": [
        {
          "indexed": true,
          "internalType": "bytes32",
          "name": "role",
          "type": "bytes32"
        },
        {
          "indexed": true,
          "internalType": "address",
          "name": "account",
          "type": "address"
        },
        {
          "indexed": true,
          "internalType": "address",
          "name": "sender",
          "type": "address"
        }
      ],
      "name": "RoleGranted",
      "type": "event"
    },
    {
      "anonymous": false,
      "inputs": [
        {
          "indexed": true,
          "internalType": "bytes32",
          "name": "role",
          "type": "bytes32"
        },
        {
          "indexed": true,
          "internalType": "address",
          "name": "account",
          "type": "address"
        },
        {
          "indexed": true,
          "internalType": "address",
          "name": "sender",
          "type": "address"
        }
      ],
      "name": "RoleRevoked",
      "type": "event"
    },
    {
      "anonymous": false,
      "inputs": [
        {
          "indexed": true,
          "internalType": "uint256",
          "name": "tokenId",
          "type": "uint256"
        },
        {
          "indexed": false,
          "internalType": "uint16",
          "name": "taxYear",
          "type": "uint16"
        },
        {
          "indexed": false,
          "internalType": "uint64",
          "name": "paidAt",
          "type": "uint64"
        },
        {
          "indexed": false,
          "internalType": "uint64",
          "name": "validUntil",
          "type": "uint64"
        },
        {
          "indexed": false,
          "internalType": "bytes32",
          "name": "receiptHash",
          "type": "bytes32"
        },
        {
          "indexed": false,
          "internalType": "enum VehicleRegistry.TaxStatus",
          "name": "status",
          "type": "uint8"
        }
      ],
      "name": "TaxPaid",
      "type": "event"
    },
    {
      "anonymous": false,
      "inputs": [
        {
          "indexed": true,
          "internalType": "uint256",
          "name": "tokenId",
          "type": "uint256"
        },
        {
          "indexed": false,
          "internalType": "address",
          "name": "dltOfficer",
          "type": "address"
        },
        {
          "indexed": false,
          "internalType": "bytes32",
          "name": "greenBookNoHash",
          "type": "bytes32"
        },
        {
          "indexed": false,
          "internalType": "bytes32",
          "name": "registrationDocHash",
          "type": "bytes32"
        }
      ],
      "name": "VehicleRegistered",
      "type": "event"
    },
    {
      "inputs": [],
      "name": "DEFAULT_ADMIN_ROLE",
      "outputs": [
        {
          "internalType": "bytes32",
          "name": "",
          "type": "bytes32"
        }
      ],
      "stateMutability": "view",
      "type": "function"
    },
    {
      "inputs": [],
      "name": "DLT_OFFICER_ROLE",
      "outputs": [
        {
          "internalType": "bytes32",
          "name": "",
          "type": "bytes32"
        }
      ],
      "stateMutability": "view",
      "type": "function"
    },
    {
      "inputs": [],
      "name": "FLAG_FLOOD",
      "outputs": [
        {
          "internalType": "uint64",
          "name": "",
          "type": "uint64"
        }
      ],
      "stateMutability": "view",
      "type": "function"
    },
    {
      "inputs": [],
      "name": "FLAG_MAJOR_ACCIDENT",
      "outputs": [
        {
          "internalType": "uint64",
          "name": "",
          "type": "uint64"
        }
      ],
      "stateMutability": "view",
      "type": "function"
    },
    {
      "inputs": [],
      "name": "FLAG_REG_CANCELLED",
      "outputs": [
        {
          "internalType": "uint64",
          "name": "",
          "type": "uint64"
        }
      ],
      "stateMutability": "view",
      "type": "function"
    },
    {
      "inputs": [],
      "name": "FLAG_SCRAPPED",
      "outputs": [
        {
          "internalType": "uint64",
          "name": "",
          "type": "uint64"
        }
      ],
      "stateMutability": "view",
      "type": "function"
    },
    {
      "inputs": [],
      "name": "FLAG_SEIZED",
      "outputs": [
        {
          "internalType": "uint64",
          "name": "",
          "type": "uint64"
        }
      ],
      "stateMutability": "view",
      "type": "function"
    },
    {
      "inputs": [],
      "name": "FLAG_STOLEN",
      "outputs": [
        {
          "internalType": "uint64",
          "name": "",
          "type": "uint64"
        }
      ],
      "stateMutability": "view",
      "type": "function"
    },
    {
      "inputs": [],
      "name": "FLAG_TOTAL_LOSS",
      "outputs": [
        {
          "internalType": "uint64",
          "name": "",
          "type": "uint64"
        }
      ],
      "stateMutability": "view",
      "type": "function"
    },
    {
      "inputs": [],
      "name": "INSPECTOR_ROLE",
      "outputs": [
        {
          "internalType": "bytes32",
          "name": "",
          "type": "bytes32"
        }
      ],
      "stateMutability": "view",
      "type": "function"
    },
    {
      "inputs": [
        {
          "internalType": "uint256",
          "name": "",
          "type": "uint256"
        }
      ],
      "name": "flags",
      "outputs": [
        {
          "internalType": "uint64",
          "name": "",
          "type": "uint64"
        }
      ],
      "stateMutability": "view",
      "type": "function"
    },
    {
      "inputs": [
        {
          "internalType": "uint256",
          "name": "tokenId",
          "type": "uint256"
        }
      ],
      "name": "getFlags",
      "outputs": [
        {
          "internalType": "uint64",
          "name": "",
          "type": "uint64"
        }
      ],
      "stateMutability": "view",
      "type": "function"
    },
    {
      "inputs": [
        {
          "internalType": "uint256",
          "name": "tokenId",
          "type": "uint256"
        }
      ],
      "name": "getRegistration",
      "outputs": [
        {
          "components": [
            {
              "internalType": "bool",
              "name": "isRegistered",
              "type": "bool"
            },
            {
              "internalType": "uint64",
              "name": "registeredAt",
              "type": "uint64"
            },
            {
              "internalType": "address",
              "name": "dltOfficer",
              "type": "address"
            },
            {
              "internalType": "bytes32",
              "name": "greenBookNoHash",
              "type": "bytes32"
            },
            {
              "internalType": "bytes32",
              "name": "registrationDocHash",
              "type": "bytes32"
            },
            {
              "internalType": "enum VehicleRegistry.RegStatus",
              "name": "status",
              "type": "uint8"
            }
          ],
          "internalType": "struct VehicleRegistry.RegistrationData",
          "name": "",
          "type": "tuple"
        }
      ],
      "stateMutability": "view",
      "type": "function"
    },
    {
      "inputs": [
        {
          "internalType": "bytes32",
          "name": "role",
          "type": "bytes32"
        }
      ],
      "name": "getRoleAdmin",
      "outputs": [
        {
          "internalType": "bytes32",
          "name": "",
          "type": "bytes32"
        }
      ],
      "stateMutability": "view",
      "type": "function"
    },
    {
      "inputs": [
        {
          "internalType": "bytes32",
          "name": "role",
          "type": "bytes32"
        },
        {
          "internalType": "address",
          "name": "account",
          "type": "address"
        }
      ],
      "name": "grantRole",
      "outputs": [],
      "stateMutability": "nonpayable",
      "type": "function"
    },
    {
      "inputs": [
        {
          "internalType": "uint256",
          "name": "tokenId",
          "type": "uint256"
        },
        {
          "internalType": "uint64",
          "name": "flagBit",
          "type": "uint64"
        }
      ],
      "name": "hasFlag",
      "outputs": [
        {
          "internalType": "bool",
          "name": "",
          "type": "bool"
        }
      ],
      "stateMutability": "view",
      "type": "function"
    },
    {
      "inputs": [
        {
          "internalType": "bytes32",
          "name": "role",
          "type": "bytes32"
        },
        {
          "internalType": "address",
          "name": "account",
          "type": "address"
        }
      ],
      "name": "hasRole",
      "outputs": [
        {
          "internalType": "bool",
          "name": "",
          "type": "bool"
        }
      ],
      "stateMutability": "view",
      "type": "function"
    },
    {
      "inputs": [],
      "name": "inspectionMaxAge",
      "outputs": [
        {
          "internalType": "uint64",
          "name": "",
          "type": "uint64"
        }
      ],
      "stateMutability": "view",
      "type": "function"
    },
    {
      "inputs": [
        {
          "internalType": "uint256",
          "name": "",
          "type": "uint256"
        }
      ],
      "name": "lastInspectionPassAt",
      "outputs": [
        {
          "internalType": "uint64",
          "name": "",
          "type": "uint64"
        }
      ],
      "stateMutability": "view",
      "type": "function"
    },
    {
      "inputs": [
        {
          "internalType": "uint256",
          "name": "tokenId",
          "type": "uint256"
        },
        {
          "internalType": "uint8",
          "name": "result",
          "type": "uint8"
        },
        {
          "internalType": "bytes32",
          "name": "metricsHash",
          "type": "bytes32"
        },
        {
          "internalType": "bytes32",
          "name": "certHash",
          "type": "bytes32"
        }
      ],
      "name": "recordInspection",
      "outputs": [],
      "stateMutability": "nonpayable",
      "type": "function"
    },
    {
      "inputs": [
        {
          "internalType": "uint256",
          "name": "tokenId",
          "type": "uint256"
        },
        {
          "internalType": "bytes32",
          "name": "plateNoHash",
          "type": "bytes32"
        },
        {
          "internalType": "uint16",
          "name": "provinceCode",
          "type": "uint16"
        },
        {
          "internalType": "enum VehicleRegistry.PlateEvent",
          "name": "eventType",
          "type": "uint8"
        },
        {
          "internalType": "bytes32",
          "name": "docHash",
          "type": "bytes32"
        },
        {
          "internalType": "uint64",
          "name": "effectiveAt",
          "type": "uint64"
        }
      ],
      "name": "recordPlateEvent",
      "outputs": [],
      "stateMutability": "nonpayable",
      "type": "function"
    },
    {
      "inputs": [
        {
          "internalType": "uint256",
          "name": "tokenId",
          "type": "uint256"
        },
        {
          "internalType": "uint16",
          "name": "taxYear",
          "type": "uint16"
        },
        {
          "internalType": "uint64",
          "name": "validUntil",
          "type": "uint64"
        },
        {
          "internalType": "bytes32",
          "name": "receiptHash",
          "type": "bytes32"
        }
      ],
      "name": "recordTaxPayment",
      "outputs": [],
      "stateMutability": "nonpayable",
      "type": "function"
    },
    {
      "inputs": [
        {
          "internalType": "uint256",
          "name": "tokenId",
          "type": "uint256"
        },
        {
          "internalType": "bytes32",
          "name": "greenBookNoHash",
          "type": "bytes32"
        },
        {
          "internalType": "bytes32",
          "name": "registrationDocHash",
          "type": "bytes32"
        }
      ],
      "name": "registerVehicle",
      "outputs": [],
      "stateMutability": "nonpayable",
      "type": "function"
    },
    {
      "inputs": [
        {
          "internalType": "uint256",
          "name": "",
          "type": "uint256"
        }
      ],
      "name": "registrations",
      "outputs": [
        {
          "internalType": "bool",
          "name": "isRegistered",
          "type": "bool"
        },
        {
          "internalType": "uint64",
          "name": "registeredAt",
          "type": "uint64"
        },
        {
          "internalType": "address",
          "name": "dltOfficer",
          "type": "address"
        },
        {
          "internalType": "bytes32",
          "name": "greenBookNoHash",
          "type": "bytes32"
        },
        {
          "internalType": "bytes32",
          "name": "registrationDocHash",
          "type": "bytes32"
        },
        {
          "internalType": "enum VehicleRegistry.RegStatus",
          "name": "status",
          "type": "uint8"
        }
      ],
      "stateMutability": "view",
      "type": "function"
    },
    {
      "inputs": [
        {
          "internalType": "bytes32",
          "name": "role",
          "type": "bytes32"
        },
        {
          "internalType": "address",
          "name": "callerConfirmation",
          "type": "address"
        }
      ],
      "name": "renounceRole",
      "outputs": [],
      "stateMutability": "nonpayable",
      "type": "function"
    },
    {
      "inputs": [
        {
          "internalType": "bytes32",
          "name": "role",
          "type": "bytes32"
        },
        {
          "internalType": "address",
          "name": "account",
          "type": "address"
        }
      ],
      "name": "revokeRole",
      "outputs": [],
      "stateMutability": "nonpayable",
      "type": "function"
    },
    {
      "inputs": [
        {
          "internalType": "uint256",
          "name": "tokenId",
          "type": "uint256"
        },
        {
          "internalType": "uint64",
          "name": "flagBit",
          "type": "uint64"
        },
        {
          "internalType": "bool",
          "name": "active",
          "type": "bool"
        },
        {
          "internalType": "bytes32",
          "name": "refHash",
          "type": "bytes32"
        }
      ],
      "name": "setFlag",
      "outputs": [],
      "stateMutability": "nonpayable",
      "type": "function"
    },
    {
      "inputs": [
        {
          "internalType": "uint64",
          "name": "_maxAge",
          "type": "uint64"
        }
      ],
      "name": "setInspectionMaxAge",
      "outputs": [],
      "stateMutability": "nonpayable",
      "type": "function"
    },
    {
      "inputs": [
        {
          "internalType": "uint256",
          "name": "tokenId",
          "type": "uint256"
        },
        {
          "internalType": "enum VehicleRegistry.RegStatus",
          "name": "newStatus",
          "type": "uint8"
        }
      ],
      "name": "setRegistrationStatus",
      "outputs": [],
      "stateMutability": "nonpayable",
      "type": "function"
    },
    {
      "inputs": [
        {
          "internalType": "bytes4",
          "name": "interfaceId",
          "type": "bytes4"
        }
      ],
      "name": "supportsInterface",
      "outputs": [
        {
          "internalType": "bool",
          "name": "",
          "type": "bool"
        }
      ],
      "stateMutability": "view",
      "type": "function"
    },
    {
      "inputs": [],
      "name": "vehicleNFT",
      "outputs": [
        {
          "internalType": "contract VehicleNFT",
          "name": "",
          "type": "address"
        }
      ],
      "stateMutability": "view",
      "type": "function"
    }
  ],
  "bytecode": "0x60806040526301e13380600560006101000a81548167ffffffffffffffff021916908367ffffffffffffffff1602179055503480156200003e57600080fd5b5060405162002bc238038062002bc28339818101604052810190620000649190620002a1565b80600160006101000a81548173ffffffffffffffffffffffffffffffffffffffff021916908373ffffffffffffffffffffffffffffffffffffffff160217905550620000ba6000801b33620000c260201b60201c565b5050620002d3565b6000620000d68383620001c560201b60201c565b620001ba57600160008085815260200190815260200160002060000160008473ffffffffffffffffffffffffffffffffffffffff1673ffffffffffffffffffffffffffffffffffffffff16815260200190815260200160002060006101000a81548160ff021916908315150217905550620001566200022f60201b60201c565b73ffffffffffffffffffffffffffffffffffffffff168273ffffffffffffffffffffffffffffffffffffffff16847f2f8788117e7eff1d82e926ec794901d17c78024a50270940304540a733656f0d60405160405180910390a460019050620001bf565b600090505b92915050565b600080600084815260200190815260200160002060000160008373ffffffffffffffffffffffffffffffffffffffff1673ffffffffffffffffffffffffffffffffffffffff16815260200190815260200160002060009054906101000a900460ff16905092915050565b600033905090565b600080fd5b600073ffffffffffffffffffffffffffffffffffffffff82169050919050565b600062000269826200023c565b9050919050565b6200027b816200025c565b81146200028757600080fd5b50565b6000815190506200029b8162000270565b92915050565b600060208284031215620002ba57620002b962000237565b5b6000620002ca848285016200028a565b91505092915050565b6128df80620002e36000396000f3fe608060405234801561001057600080fd5b50600436106101e55760003560e01c806381274d3a1161010f578063bfbf0bae116100a2578063d547741f11610071578063d547741f14610592578063e3a3c522146105ae578063e44a403c146105cc578063f4ddb5be146105ea576101e5565b8063bfbf0bae146104f6578063c1f771fb14610514578063c5ebc37914610544578063c8e0e4df14610562576101e5565b8063a217fddf116100de578063a217fddf1461046c578063a9a16e381461048a578063b29faec6146104ba578063b95ca417146104d8576101e5565b806381274d3a146103d2578063912819201461040257806391d148541461041e578063935646d01461044e576101e5565b806326493ab01161018757806336568abe1161015657806336568abe1461034c578063476b5908146103685780634bbdd83c146103985780635577a634146103b4576101e5565b806326493ab0146102dc5780632f2ff15d146102f857806332b43a2214610314578063363c84d114610330576101e5565b80631e82ddde116101c35780631e82ddde146102545780631f49647b14610272578063248a9ca31461029057806325fc55ec146102c0576101e5565b806301ffc9a7146101ea5780630b577f2c1461021a578063189097fc14610236575b600080fd5b61020460048036038101906101ff9190611c8a565b61061f565b6040516102119190611cd2565b60405180910390f35b610234600480360381019061022f9190611df8565b610699565b005b61023e610818565b60405161024b9190611f04565b60405180910390f35b61025c61083e565b6040516102699190611f2e565b60405180910390f35b61027a610843565b6040516102879190611f58565b60405180910390f35b6102aa60048036038101906102a59190611f73565b610867565b6040516102b79190611f58565b60405180910390f35b6102da60048036038101906102d59190611fc5565b610886565b005b6102f660048036038101906102f19190612031565b610b04565b005b610312600480360381019061030d91906120d6565b610d42565b005b61032e60048036038101906103299190612116565b610d64565b005b61034a60048036038101906103459190612169565b611093565b005b610366600480360381019061036191906120d6565b611211565b005b610382600480360381019061037d91906121d0565b61128c565b60405161038f9190611f2e565b60405180910390f35b6103b260048036038101906103ad9190612236565b6112bd565b005b6103bc611486565b6040516103c99190611f2e565b60405180910390f35b6103ec60048036038101906103e791906121d0565b61148b565b6040516103f99190611f2e565b60405180910390f35b61041c6004803603810190610417919061229d565b6114b2565b005b610438600480360381019061043391906120d6565b6114ec565b6040516104459190611cd2565b60405180910390f35b610456611556565b6040516104639190611f2e565b60405180910390f35b61047461155b565b6040516104819190611f58565b60405180910390f35b6104a4600480360381019061049f91906121d0565b611562565b6040516104b19190611f2e565b60405180910390f35b6104c2611589565b6040516104cf9190611f2e565b60405180910390f35b6104e06115a3565b6040516104ed9190611f2e565b60405180910390f35b6104fe6115a8565b60405161050b9190611f2e565b60405180910390f35b61052e600480360381019061052991906121d0565b6115ad565b60405161053b91906123f8565b60405180910390f35b61054c6116cc565b6040516105599190611f2e565b60405180910390f35b61057c60048036038101906105779190612413565b6116d1565b6040516105899190611cd2565b60405180910390f35b6105ac60048036038101906105a791906120d6565b611712565b005b6105b6611734565b6040516105c39190611f58565b60405180910390f35b6105d4611758565b6040516105e19190611f2e565b60405180910390f35b61060460048036038101906105ff91906121d0565b61175d565b60405161061696959493929190612471565b60405180910390f35b60007f7965db0b000000000000000000000000000000000000000000000000000000007bffffffffffffffffffffffffffffffffffffffffffffffffffffffff1916827bffffffffffffffffffffffffffffffffffffffffffffffffffffffff191614806106925750610691826117e7565b5b9050919050565b7ff50ed327b4c4089cb358ad7d3f8a5aae27f0386fa391d7d0a2e05fbe33107df36106c381611851565b86600073ffffffffffffffffffffffffffffffffffffffff16600160009054906101000a900473ffffffffffffffffffffffffffffffffffffffff1673ffffffffffffffffffffffffffffffffffffffff16636352211e836040518263ffffffff1660e01b815260040161073791906124e1565b602060405180830381865afa158015610754573d6000803e3d6000fd5b505050506040513d601f19601f820116820180604052508101906107789190612511565b73ffffffffffffffffffffffffffffffffffffffff16036107ce576040517f08c379a00000000000000000000000000000000000000000000000000000000081526004016107c59061259b565b60405180910390fd5b877fa6bf7b6f6b3942dda5e1177d0259acb9ea77c562534333e6581ec54f039c87518888888888604051610806959493929190612612565b60405180910390a25050505050505050565b600160009054906101000a900473ffffffffffffffffffffffffffffffffffffffff1681565b604081565b7ff50ed327b4c4089cb358ad7d3f8a5aae27f0386fa391d7d0a2e05fbe33107df381565b6000806000838152602001908152602001600020600101549050919050565b7ff50ed327b4c4089cb358ad7d3f8a5aae27f0386fa391d7d0a2e05fbe33107df36108b081611851565b82600073ffffffffffffffffffffffffffffffffffffffff16600160009054906101000a900473ffffffffffffffffffffffffffffffffffffffff1673ffffffffffffffffffffffffffffffffffffffff16636352211e836040518263ffffffff1660e01b815260040161092491906124e1565b602060405180830381865afa158015610941573d6000803e3d6000fd5b505050506040513d601f19601f820116820180604052508101906109659190612511565b73ffffffffffffffffffffffffffffffffffffffff16036109bb576040517f08c379a00000000000000000000000000000000000000000000000000000000081526004016109b29061259b565b60405180910390fd5b826002600086815260200190815260200160002060030160006101000a81548160ff021916908360038111156109f4576109f3612306565b5b0217905550837fffacd687586150cd31833f16b4999c889ed58c5d13b0b9d2aa50f9be8e2ca2a684604051610a299190612665565b60405180910390a2600380811115610a4457610a43612306565b5b836003811115610a5757610a56612306565b5b03610afe57600160009054906101000a900473ffffffffffffffffffffffffffffffffffffffff1673ffffffffffffffffffffffffffffffffffffffff166320d4ab5a8560016040518363ffffffff1660e01b8152600401610aba929190612680565b600060405180830381600087803b158015610ad457600080fd5b505af1158015610ae8573d6000803e3d6000fd5b50505050610afd84604060016000801b611865565b5b50505050565b7ff50ed327b4c4089cb358ad7d3f8a5aae27f0386fa391d7d0a2e05fbe33107df3610b2e81611851565b84600073ffffffffffffffffffffffffffffffffffffffff16600160009054906101000a900473ffffffffffffffffffffffffffffffffffffffff1673ffffffffffffffffffffffffffffffffffffffff16636352211e836040518263ffffffff1660e01b8152600401610ba291906124e1565b602060405180830381865afa158015610bbf573d6000803e3d6000fd5b505050506040513d601f19601f82011682018060405250810190610be39190612511565b73ffffffffffffffffffffffffffffffffffffffff1603610c39576040517f08c379a0000000000000000000000000000000000000000000000000000000008152600401610c309061259b565b60405180910390fd5b610c4586868686611865565b838015610ca45750600167ffffffffffffffff168567ffffffffffffffff161480610c845750600267ffffffffffffffff168567ffffffffffffffff16145b80610ca35750601067ffffffffffffffff168567ffffffffffffffff16145b5b15610d3a57600160009054906101000a900473ffffffffffffffffffffffffffffffffffffffff1673ffffffffffffffffffffffffffffffffffffffff166320d4ab5a8760016040518363ffffffff1660e01b8152600401610d07929190612680565b600060405180830381600087803b158015610d2157600080fd5b505af1158015610d35573d6000803e3d6000fd5b505050505b505050505050565b610d4b82610867565b610d5481611851565b610d5e8383611981565b50505050565b7ff50ed327b4c4089cb358ad7d3f8a5aae27f0386fa391d7d0a2e05fbe33107df3610d8e81611851565b83600073ffffffffffffffffffffffffffffffffffffffff16600160009054906101000a900473ffffffffffffffffffffffffffffffffffffffff1673ffffffffffffffffffffffffffffffffffffffff16636352211e836040518263ffffffff1660e01b8152600401610e0291906124e1565b602060405180830381865afa158015610e1f573d6000803e3d6000fd5b505050506040513d601f19601f82011682018060405250810190610e439190612511565b73ffffffffffffffffffffffffffffffffffffffff1603610e99576040517f08c379a0000000000000000000000000000000000000000000000000000000008152600401610e909061259b565b60405180910390fd5b6002600086815260200190815260200160002060000160009054906101000a900460ff1615610efd576040517f08c379a0000000000000000000000000000000000000000000000000000000008152600401610ef4906126f5565b60405180910390fd5b6040518060c001604052806001151581526020014267ffffffffffffffff1681526020013373ffffffffffffffffffffffffffffffffffffffff16815260200185815260200184815260200160016003811115610f5d57610f5c612306565b5b8152506002600087815260200190815260200160002060008201518160000160006101000a81548160ff02191690831515021790555060208201518160000160016101000a81548167ffffffffffffffff021916908367ffffffffffffffff16021790555060408201518160000160096101000a81548173ffffffffffffffffffffffffffffffffffffffff021916908373ffffffffffffffffffffffffffffffffffffffff160217905550606082015181600101556080820151816002015560a08201518160030160006101000a81548160ff0219169083600381111561104857611047612306565b5b0217905550905050847f6b640630a99f00464f3c3ecb1c0be84aeb919670fc319fc602573d5d8647f70c33868660405161108493929190612715565b60405180910390a25050505050565b7ff50ed327b4c4089cb358ad7d3f8a5aae27f0386fa391d7d0a2e05fbe33107df36110bd81611851565b84600073ffffffffffffffffffffffffffffffffffffffff16600160009054906101000a900473ffffffffffffffffffffffffffffffffffffffff1673ffffffffffffffffffffffffffffffffffffffff16636352211e836040518263ffffffff1660e01b815260040161113191906124e1565b602060405180830381865afa15801561114e573d6000803e3d6000fd5b505050506040513d601f19601f820116820180604052508101906111729190612511565b73ffffffffffffffffffffffffffffffffffffffff16036111c8576040517f08c379a00000000000000000000000000000000000000000000000000000000081526004016111bf9061259b565b60405180910390fd5b857f1d6ce05b6282c3fc767ce15e171be95d85175a8777775a637b9a7a2198352a20864287876000604051611201959493929190612794565b60405180910390a2505050505050565b611219611a72565b73ffffffffffffffffffffffffffffffffffffffff168173ffffffffffffffffffffffffffffffffffffffff161461127d576040517f6697b23200000000000000000000000000000000000000000000000000000000815260040160405180910390fd5b6112878282611a7a565b505050565b60006003600083815260200190815260200160002060009054906101000a900467ffffffffffffffff169050919050565b7f273dcf2136c7d8ef632bb8ef13dbca69a8f36fa620c7468671b3153d46a211c06112e781611851565b84600073ffffffffffffffffffffffffffffffffffffffff16600160009054906101000a900473ffffffffffffffffffffffffffffffffffffffff1673ffffffffffffffffffffffffffffffffffffffff16636352211e836040518263ffffffff1660e01b815260040161135b91906124e1565b602060405180830381865afa158015611378573d6000803e3d6000fd5b505050506040513d601f19601f8201168201806040525081019061139c9190612511565b73ffffffffffffffffffffffffffffffffffffffff16036113f2576040517f08c379a00000000000000000000000000000000000000000000000000000000081526004016113e99061259b565b60405180910390fd5b600042905060018660ff160361143d57806004600089815260200190815260200160002060006101000a81548167ffffffffffffffff021916908367ffffffffffffffff1602179055505b867f39132ec408f007c136eab368f1dabc5f833398d6e5bf1022b75b870b1e0cd47933888888866040516114759594939291906127f6565b60405180910390a250505050505050565b601081565b60036020528060005260406000206000915054906101000a900467ffffffffffffffff1681565b6000801b6114bf81611851565b81600560006101000a81548167ffffffffffffffff021916908367ffffffffffffffff1602179055505050565b600080600084815260200190815260200160002060000160008373ffffffffffffffffffffffffffffffffffffffff1673ffffffffffffffffffffffffffffffffffffffff16815260200190815260200160002060009054906101000a900460ff16905092915050565b600281565b6000801b81565b60046020528060005260406000206000915054906101000a900467ffffffffffffffff1681565b600560009054906101000a900467ffffffffffffffff1681565b600881565b600181565b6115b5611bbd565b600260008381526020019081526020016000206040518060c00160405290816000820160009054906101000a900460ff161515151581526020016000820160019054906101000a900467ffffffffffffffff1667ffffffffffffffff1667ffffffffffffffff1681526020016000820160099054906101000a900473ffffffffffffffffffffffffffffffffffffffff1673ffffffffffffffffffffffffffffffffffffffff1673ffffffffffffffffffffffffffffffffffffffff16815260200160018201548152602001600282015481526020016003820160009054906101000a900460ff1660038111156116af576116ae612306565b5b60038111156116c1576116c0612306565b5b815250509050919050565b600481565b600080826003600086815260200190815260200160002060009054906101000a900467ffffffffffffffff161667ffffffffffffffff161415905092915050565b61171b82610867565b61172481611851565b61172e8383611a7a565b50505050565b7f273dcf2136c7d8ef632bb8ef13dbca69a8f36fa620c7468671b3153d46a211c081565b602081565b60026020528060005260406000206000915090508060000160009054906101000a900460ff16908060000160019054906101000a900467ffffffffffffffff16908060000160099054906101000a900473ffffffffffffffffffffffffffffffffffffffff16908060010154908060020154908060030160009054906101000a900460ff16905086565b60007f01ffc9a7000000000000000000000000000000000000000000000000000000007bffffffffffffffffffffffffffffffffffffffffffffffffffffffff1916827bffffffffffffffffffffffffffffffffffffffffffffffffffffffff1916149050919050565b6118628161185d611a72565b611b6c565b50565b81156118c357826003600086815260200190815260200160002060008282829054906101000a900467ffffffffffffffff161792506101000a81548167ffffffffffffffff021916908367ffffffffffffffff160217905550611918565b82196003600086815260200190815260200160002060008282829054906101000a900467ffffffffffffffff161692506101000a81548167ffffffffffffffff021916908367ffffffffffffffff1602179055505b837f7cbf785ec39e58ebee05f73f0f74cc8bbe263c93fd28ed81b2431018b943280a6003600087815260200190815260200160002060009054906101000a900467ffffffffffffffff16338460405161197393929190612849565b60405180910390a250505050565b600061198d83836114ec565b611a6757600160008085815260200190815260200160002060000160008473ffffffffffffffffffffffffffffffffffffffff1673ffffffffffffffffffffffffffffffffffffffff16815260200190815260200160002060006101000a81548160ff021916908315150217905550611a04611a72565b73ffffffffffffffffffffffffffffffffffffffff168273ffffffffffffffffffffffffffffffffffffffff16847f2f8788117e7eff1d82e926ec794901d17c78024a50270940304540a733656f0d60405160405180910390a460019050611a6c565b600090505b92915050565b600033905090565b6000611a8683836114ec565b15611b6157600080600085815260200190815260200160002060000160008473ffffffffffffffffffffffffffffffffffffffff1673ffffffffffffffffffffffffffffffffffffffff16815260200190815260200160002060006101000a81548160ff021916908315150217905550611afe611a72565b73ffffffffffffffffffffffffffffffffffffffff168273ffffffffffffffffffffffffffffffffffffffff16847ff6391f5c32d9c69d2a47ea670b442974b53935d1edc7fd64eb21e047a839171b60405160405180910390a460019050611b66565b600090505b92915050565b611b7682826114ec565b611bb95780826040517fe2517d3f000000000000000000000000000000000000000000000000000000008152600401611bb0929190612880565b60405180910390fd5b5050565b6040518060c00160405280600015158152602001600067ffffffffffffffff168152602001600073ffffffffffffffffffffffffffffffffffffffff168152602001600080191681526020016000801916815260200160006003811115611c2757611c26612306565b5b81525090565b600080fd5b60007fffffffff0000000000000000000000000000000000000000000000000000000082169050919050565b611c6781611c32565b8114611c7257600080fd5b50565b600081359050611c8481611c5e565b92915050565b600060208284031215611ca057611c9f611c2d565b5b6000611cae84828501611c75565b91505092915050565b60008115159050919050565b611ccc81611cb7565b82525050565b6000602082019050611ce76000830184611cc3565b92915050565b6000819050919050565b611d0081611ced565b8114611d0b57600080fd5b50565b600081359050611d1d81611cf7565b92915050565b6000819050919050565b611d3681611d23565b8114611d4157600080fd5b50565b600081359050611d5381611d2d565b92915050565b600061ffff82169050919050565b611d7081611d59565b8114611d7b57600080fd5b50565b600081359050611d8d81611d67565b92915050565b60038110611da057600080fd5b50565b600081359050611db281611d93565b92915050565b600067ffffffffffffffff82169050919050565b611dd581611db8565b8114611de057600080fd5b50565b600081359050611df281611dcc565b92915050565b60008060008060008060c08789031215611e1557611e14611c2d565b5b6000611e2389828a01611d0e565b9650506020611e3489828a01611d44565b9550506040611e4589828a01611d7e565b9450506060611e5689828a01611da3565b9350506080611e6789828a01611d44565b92505060a0611e7889828a01611de3565b9150509295509295509295565b600073ffffffffffffffffffffffffffffffffffffffff82169050919050565b6000819050919050565b6000611eca611ec5611ec084611e85565b611ea5565b611e85565b9050919050565b6000611edc82611eaf565b9050919050565b6000611eee82611ed1565b9050919050565b611efe81611ee3565b82525050565b6000602082019050611f196000830184611ef5565b92915050565b611f2881611db8565b82525050565b6000602082019050611f436000830184611f1f565b92915050565b611f5281611d23565b82525050565b6000602082019050611f6d6000830184611f49565b92915050565b600060208284031215611f8957611f88611c2d565b5b6000611f9784828501611d44565b91505092915050565b60048110611fad57600080fd5b50565b600081359050611fbf81611fa0565b92915050565b60008060408385031215611fdc57611fdb611c2d565b5b6000611fea85828601611d0e565b9250506020611ffb85828601611fb0565b9150509250929050565b61200e81611cb7565b811461201957600080fd5b50565b60008135905061202b81612005565b92915050565b6000806000806080858703121561204b5761204a611c2d565b5b600061205987828801611d0e565b945050602061206a87828801611de3565b935050604061207b8782880161201c565b925050606061208c87828801611d44565b91505092959194509250565b60006120a382611e85565b9050919050565b6120b381612098565b81146120be57600080fd5b50565b6000813590506120d0816120aa565b92915050565b600080604083850312156120ed576120ec611c2d565b5b60006120fb85828601611d44565b925050602061210c858286016120c1565b9150509250929050565b60008060006060848603121561212f5761212e611c2d565b5b600061213d86828701611d0e565b935050602061214e86828701611d44565b925050604061215f86828701611d44565b9150509250925092565b6000806000806080858703121561218357612182611c2d565b5b600061219187828801611d0e565b94505060206121a287828801611d7e565b93505060406121b387828801611de3565b92505060606121c487828801611d44565b91505092959194509250565b6000602082840312156121e6576121e5611c2d565b5b60006121f484828501611d0e565b91505092915050565b600060ff82169050919050565b612213816121fd565b811461221e57600080fd5b50565b6000813590506122308161220a565b92915050565b600080600080608085870312156122505761224f611c2d565b5b600061225e87828801611d0e565b945050602061226f87828801612221565b935050604061228087828801611d44565b925050606061229187828801611d44565b91505092959194509250565b6000602082840312156122b3576122b2611c2d565b5b60006122c184828501611de3565b91505092915050565b6122d381611cb7565b82525050565b6122e281611db8565b82525050565b6122f181612098565b82525050565b61230081611d23565b82525050565b7f4e487b7100000000000000000000000000000000000000000000000000000000600052602160045260246000fd5b6004811061234657612345612306565b5b50565b600081905061235782612335565b919050565b600061236782612349565b9050919050565b6123778161235c565b82525050565b60c08201600082015161239360008501826122ca565b5060208201516123a660208501826122d9565b5060408201516123b960408501826122e8565b5060608201516123cc60608501826122f7565b5060808201516123df60808501826122f7565b5060a08201516123f260a085018261236e565b50505050565b600060c08201905061240d600083018461237d565b92915050565b6000806040838503121561242a57612429611c2d565b5b600061243885828601611d0e565b925050602061244985828601611de3565b9150509250929050565b61245c81612098565b82525050565b61246b8161235c565b82525050565b600060c0820190506124866000830189611cc3565b6124936020830188611f1f565b6124a06040830187612453565b6124ad6060830186611f49565b6124ba6080830185611f49565b6124c760a0830184612462565b979650505050505050565b6124db81611ced565b82525050565b60006020820190506124f660008301846124d2565b92915050565b60008151905061250b816120aa565b92915050565b60006020828403121561252757612526611c2d565b5b6000612535848285016124fc565b91505092915050565b600082825260208201905092915050565b7f56656869636c6520646f6573206e6f7420657869737400000000000000000000600082015250565b600061258560168361253e565b91506125908261254f565b602082019050919050565b600060208201905081810360008301526125b481612578565b9050919050565b6125c481611d59565b82525050565b600381106125db576125da612306565b5b50565b60008190506125ec826125ca565b919050565b60006125fc826125de565b9050919050565b61260c816125f1565b82525050565b600060a0820190506126276000830188611f49565b61263460208301876125bb565b6126416040830186612603565b61264e6060830185611f49565b61265b6080830184611f1f565b9695505050505050565b600060208201905061267a6000830184612462565b92915050565b600060408201905061269560008301856124d2565b6126a26020830184611cc3565b9392505050565b7f416c726561647920726567697374657265640000000000000000000000000000600082015250565b60006126df60128361253e565b91506126ea826126a9565b602082019050919050565b6000602082019050818103600083015261270e816126d2565b9050919050565b600060608201905061272a6000830186612453565b6127376020830185611f49565b6127446040830184611f49565b949350505050565b6003811061275d5761275c612306565b5b50565b600081905061276e8261274c565b919050565b600061277e82612760565b9050919050565b61278e81612773565b82525050565b600060a0820190506127a960008301886125bb565b6127b66020830187611f1f565b6127c36040830186611f1f565b6127d06060830185611f49565b6127dd6080830184612785565b9695505050505050565b6127f0816121fd565b82525050565b600060a08201905061280b6000830188612453565b61281860208301876127e7565b6128256040830186611f49565b6128326060830185611f49565b61283f6080830184611f1f565b9695505050505050565b600060608201905061285e6000830186611f1f565b61286b6020830185612453565b6128786040830184611f49565b949350505050565b60006040820190506128956000830185612453565b6128a26020830184611f49565b939250505056fea2646970667358221220aa7cafeb80e18541bb1db8f5874a1e76e71bca04b2ddc2c33f6df0531bc4625a64736f6c63430008140033",
  "linkReferences": {},
  "deployedLinkReferences": {}
}