{
  "_format": "hh-sol-artifact-1",
  "contractName": "VehicleConsent",
  "sourceName": "contracts/VehicleConsent.sol",
  "abi": [
    {
      "inputs": [
        {
          "internalType": "address",
          "name": "_vehicleNFT",
          "type": "address"
        }
      ],
      "stateMutability": "nonpayable",
      "type": "constructor"
    },
    {
      "anonymous": false,
      "inputs": [
        {
          "indexed": true,
          "internalType": "uint256",
          "name": "tokenId",
          "type": "uint256"
        },
        {
          "indexed": true,
          "internalType": "address",
          "name": "owner",
          "type": "address"
        },
        {
          "indexed": false,
          "internalType": "bytes32",
          "name": "granteeDid",
          "type": "bytes32"
        },
        {
          "indexed": false,
          "internalType": "uint64",
          "name": "scopeMask",
          "type": "uint64"
        },
        {
          "indexed": false,
          "internalType": "uint64",
          "name": "expiresAt",
          "type": "uint64"
        },
        {
          "indexed": false,
          "internalType": "uint64",
          "name": "nonce",
          "type": "uint64"
        },
        {
          "indexed": false,
          "internalType": "bool",
          "name": "singleUse",
          "type": "bool"
        },
        {
          "indexed": false,
          "internalType": "bytes32",
          "name": "grantHash",
          "type": "bytes32"
        }
      ],
      "name": "ConsentGranted",
      "type": "event"
    },
    {
      "anonymous": false,
      "inputs": [
        {
          "indexed": true,
          "internalType": "uint256",
          "name": "tokenId",
          "type": "uint256"
        },
        {
          "indexed": false,
          "internalType": "bytes32",
          "name": "grantHash",
          "type": "bytes32"
        }
      ],
      "name": "ConsentRevoked",
      "type": "event"
    },
    {
      "anonymous": false,
      "inputs": [
        {
          "indexed": true,
          "internalType": "uint256",
          "name": "tokenId",
          "type": "uint256"
        },
        {
          "indexed": false,
          "internalType": "bytes32",
          "name": "grantHash",
          "type": "bytes32"
        },
        {
          "indexed": false,
          "internalType": "address",
          "name": "accessor",
          "type": "address"
        }
      ],
      "name": "ConsentUsed",
      "type": "event"
    },
    {
      "inputs": [],
      "name": "SCOPE_CLAIMS_FULL",
      "outputs": [
        {
          "internalType": "uint64",
          "name": "",
          "type": "uint64"
        }
      ],
      "stateMutability": "view",
      "type": "function"
    },
    {
      "inputs": [],
      "name": "SCOPE_CLAIMS_SUMMARY",
      "outputs": [
        {
          "internalType": "uint64",
          "name": "",
          "type": "uint64"
        }
      ],
      "stateMutability": "view",
      "type": "function"
    },
    {
      "inputs": [],
      "name": "SCOPE_INSPECTION_HISTORY",
      "outputs": [
        {
          "internalType": "uint64",
          "name": "",
          "type": "uint64"
        }
      ],
      "stateMutability": "view",
      "type": "function"
    },
    {
      "inputs": [],
      "name": "SCOPE_MAINTENANCE_FULL",
      "outputs": [
        {
          "internalType": "uint64",
          "name": "",
          "type": "uint64"
        }
      ],
      "stateMutability": "view",
      "type": "function"
    },
    {
      "inputs": [],
      "name": "SCOPE_MAINTENANCE_SUMMARY",
      "outputs": [
        {
          "internalType": "uint64",
          "name": "",
          "type": "uint64"
        }
      ],
      "stateMutability": "view",
      "type": "function"
    },
    {
      "inputs": [],
      "name": "SCOPE_ODOMETER_TREND",
      "outputs": [
        {
          "internalType": "uint64",
          "name": "",
          "type": "uint64"
        }
      ],
      "stateMutability": "view",
      "type": "function"
    },
    {
      "inputs": [],
      "name": "SCOPE_OWNERSHIP_HISTORY",
      "outputs": [
        {
          "internalType": "uint64",
          "name": "",
          "type": "uint64"
        }
      ],
      "stateMutability": "view",
      "type": "function"
    },
    {
      "inputs": [],
      "name": "SCOPE_PII",
      "outputs": [
        {
          "internalType": "uint64",
          "name": "",
          "type": "uint64"
        }
      ],
      "stateMutability": "view",
      "type": "function"
    },
    {
      "inputs": [],
      "name": "SCOPE_VEHICLE_IDENTITY",
      "outputs": [
        {
          "internalType": "uint64",
          "name": "",
          "type": "uint64"
        }
      ],
      "stateMutability": "view",
      "type": "function"
    },
    {
      "inputs": [
        {
          "internalType": "uint256",
          "name": "tokenId",
          "type": "uint256"
        },
        {
          "internalType": "bytes32",
          "name": "grantHash",
          "type": "bytes32"
        }
      ],
      "name": "getGrant",
      "outputs": [
        {
          "components": [
            {
              "internalType": "bytes32",
              "name": "granteeDid",
              "type": "bytes32"
            },
            {
              "internalType": "uint64",
              "name": "scopeMask",
              "type": "uint64"
            },
            {
              "internalType": "uint64",
              "name": "expiresAt",
              "type": "uint64"
            },
            {
              "internalType": "uint64",
              "name": "nonce",
              "type": "uint64"
            },
            {
              "internalType": "bool",
              "name": "singleUse",
              "type": "bool"
            },
            {
              "internalType": "bool",
              "name": "used",
              "type": "bool"
            },
            {
              "internalType": "bool",
              "name": "revoked",
              "type": "bool"
            }
          ],
          "internalType": "struct VehicleConsent.Grant",
          "name": "",
          "type": "tuple"
        }
      ],
      "stateMutability": "view",
      "type": "function"
    },
    {
      "inputs": [
        {
          "internalType": "uint256",
          "name": "tokenId",
          "type": "uint256"
        },
        {
          "internalType": "bytes32",
          "name": "granteeDid",
          "type": "bytes32"
        },
        {
          "internalType": "uint64",
          "name": "scopeMask",
          "type": "uint64"
        },
        {
          "internalType": "uint64",
          "name": "expiresAt",
          "type": "uint64"
        },
        {
          "internalType": "bool",
          "name": "singleUse",
          "type": "bool"
        },
        {
          "internalType": "uint64",
          "name": "nonce",
          "type": "uint64"
        }
      ],
      "name": "grantConsent",
      "outputs": [
        {
          "internalType": "bytes32",
          "name": "grantHash",
          "type": "bytes32"
        }
      ],
      "stateMutability": "nonpayable",
      "type": "function"
    },
    {
      "inputs": [
        {
          "internalType": "uint256",
          "name": "",
          "type": "uint256"
        },
        {
          "internalType": "bytes32",
          "name": "",
          "type": "bytes32"
        }
      ],
      "name": "grants",
      "outputs": [
        {
          "internalType": "bytes32",
          "name": "granteeDid",
          "type": "bytes32"
        },
        {
          "internalType": "uint64",
          "name": "scopeMask",
          "type": "uint64"
        },
        {
          "internalType": "uint64",
          "name": "expiresAt",
          "type": "uint64"
        },
        {
          "internalType": "uint64",
          "name": "nonce",
          "type": "uint64"
        },
        {
          "internalType": "bool",
          "name": "singleUse",
          "type": "bool"
        },
        {
          "internalType": "bool",
          "name": "used",
          "type": "bool"
        },
        {
          "internalType": "bool",
          "name": "revoked",
          "type": "bool"
        }
      ],
      "stateMutability": "view",
      "type": "function"
    },
    {
      "inputs": [
        {
          "internalType": "uint256",
          "name": "tokenId",
          "type": "uint256"
        },
        {
          "internalType": "bytes32",
          "name": "grantHash",
          "type": "bytes32"
        }
      ],
      "name": "isGrantValid",
      "outputs": [
        {
          "internalType": "bool",
          "name": "",
          "type": "bool"
        }
      ],
      "stateMutability": "view",
      "type": "function"
    },
    {
      "inputs": [
        {
          "internalType": "uint256",
          "name": "tokenId",
          "type": "uint256"
        },
        {
          "internalType": "bytes32",
          "name": "grantHash",
          "type": "bytes32"
        }
      ],
      "name": "revokeConsent",
      "outputs": [],
      "stateMutability": "nonpayable",
      "type": "function"
    },
    {
      "inputs": [],
      "name": "vehicleNFT",
      "outputs": [
        {
          "internalType": "contract VehicleNFT",
          "name": "",
          "type": "address"
        }
      ],
      "stateMutability": "view",
      "type": "function"
    },
    {
      "inputs": [
        {
          "internalType": "uint256",
          "name": "tokenId",
          "type": "uint256"
        },
        {
          "internalType": "bytes32",
          "name": "grantHash",
          "type": "bytes32"
        }
      ],
      "name": "verifyConsent",
      "outputs": [
        {
          "internalType": "bool",
          "name": "valid",
          "type": "bool"
        },
        {
          "internalType": "uint64",
          "name": "scope",
          "type": "uint64"
        }
      ],
      "stateMutability": "nonpayable",
      "type": "function"
    }
  ],
  "bytecode": "0x60806040523480156200001157600080fd5b5060405162001816380380620018168339818101604052810190620000379190620000e8565b806000806101000a81548173ffffffffffffffffffffffffffffffffffffffff021916908373ffffffffffffffffffffffffffffffffffffffff160217905550506200011a565b600080fd5b600073ffffffffffffffffffffffffffffffffffffffff82169050919050565b6000620000b08262000083565b9050919050565b620000c281620000a3565b8114620000ce57600080fd5b50565b600081519050620000e281620000b7565b92915050565b6000602082840312156200010157620001006200007e565b5b60006200011184828501620000d1565b91505092915050565b6116ec806200012a6000396000f3fe608060405234801561001057600080fd5b50600436106101005760003560e01c80637f982f5e11610097578063a08a476411610066578063a08a4764146102a7578063a15a98ba146102d7578063cd4d4a4814610308578063fef4fe4f1461032657610100565b80637f982f5e14610219578063859d63c91461024f57806385a308501461026d5780638c5b52521461028957610100565b80632b171455116100d35780632b171455146101a15780632cc13811146101bf5780632e010eef146101dd5780636a227754146101fb57610100565b8063189097fc14610105578063213e12f31461012357806325208b5e1461015357806326930b9114610171575b600080fd5b61010d610344565b60405161011a9190610f3d565b60405180910390f35b61013d60048036038101906101389190610fc9565b610368565b60405161014a91906110e4565b60405180910390f35b61015b610498565b604051610168919061110e565b60405180910390f35b61018b60048036038101906101869190610fc9565b61049d565b6040516101989190611138565b60405180910390f35b6101a961058f565b6040516101b6919061110e565b60405180910390f35b6101c7610594565b6040516101d4919061110e565b60405180910390f35b6101e5610599565b6040516101f2919061110e565b60405180910390f35b61020361059e565b604051610210919061110e565b60405180910390f35b610233600480360381019061022e9190610fc9565b6105a3565b6040516102469796959493929190611162565b60405180910390f35b610257610655565b604051610264919061110e565b60405180910390f35b61028760048036038101906102829190610fc9565b61065a565b005b610291610851565b60405161029e919061110e565b60405180910390f35b6102c160048036038101906102bc9190611229565b610856565b6040516102ce91906112b6565b60405180910390f35b6102f160048036038101906102ec9190610fc9565b610cc7565b6040516102ff9291906112d1565b60405180910390f35b610310610e4f565b60405161031d919061110e565b60405180910390f35b61032e610e55565b60405161033b919061110e565b60405180910390f35b60008054906101000a900473ffffffffffffffffffffffffffffffffffffffff1681565b610370610e5a565b6001600084815260200190815260200160002060008381526020019081526020016000206040518060e0016040529081600082015481526020016001820160009054906101000a900467ffffffffffffffff1667ffffffffffffffff1667ffffffffffffffff1681526020016001820160089054906101000a900467ffffffffffffffff1667ffffffffffffffff1667ffffffffffffffff1681526020016001820160109054906101000a900467ffffffffffffffff1667ffffffffffffffff1667ffffffffffffffff1681526020016001820160189054906101000a900460ff161515151581526020016001820160199054906101000a900460ff1615151515815260200160018201601a9054906101000a900460ff161515151581525050905092915050565b600481565b600080600160008581526020019081526020016000206000848152602001908152602001600020905060008160010160109054906101000a900467ffffffffffffffff1667ffffffffffffffff161480610505575080600101601a9054906101000a900460ff165b15610514576000915050610589565b8060010160089054906101000a900467ffffffffffffffff1667ffffffffffffffff16421115610548576000915050610589565b8060010160189054906101000a900460ff16801561057457508060010160199054906101000a900460ff165b15610583576000915050610589565b60019150505b92915050565b600181565b601081565b600881565b602081565b6001602052816000526040600020602052806000526040600020600091509150508060000154908060010160009054906101000a900467ffffffffffffffff16908060010160089054906101000a900467ffffffffffffffff16908060010160109054906101000a900467ffffffffffffffff16908060010160189054906101000a900460ff16908060010160199054906101000a900460ff169080600101601a9054906101000a900460ff16905087565b604081565b3373ffffffffffffffffffffffffffffffffffffffff1660008054906101000a900473ffffffffffffffffffffffffffffffffffffffff1673ffffffffffffffffffffffffffffffffffffffff16636352211e846040518263ffffffff1660e01b81526004016106ca9190611309565b602060405180830381865afa1580156106e7573d6000803e3d6000fd5b505050506040513d601f19601f8201168201806040525081019061070b9190611362565b73ffffffffffffffffffffffffffffffffffffffff1614610761576040517f08c379a0000000000000000000000000000000000000000000000000000000008152600401610758906113ec565b60405180910390fd5b600160008381526020019081526020016000206000828152602001908152602001600020600101601a9054906101000a900460ff16156107d6576040517f08c379a00000000000000000000000000000000000000000000000000000000081526004016107cd90611458565b60405180910390fd5b60018060008481526020019081526020016000206000838152602001908152602001600020600101601a6101000a81548160ff021916908315150217905550817fd639d8ed110b9f9013055eaeb81779ef261a188a0255dc6562bff228496479948260405161084591906112b6565b60405180910390a25050565b600281565b60003373ffffffffffffffffffffffffffffffffffffffff1660008054906101000a900473ffffffffffffffffffffffffffffffffffffffff1673ffffffffffffffffffffffffffffffffffffffff16636352211e896040518263ffffffff1660e01b81526004016108c89190611309565b602060405180830381865afa1580156108e5573d6000803e3d6000fd5b505050506040513d601f19601f820116820180604052508101906109099190611362565b73ffffffffffffffffffffffffffffffffffffffff161461095f576040517f08c379a0000000000000000000000000000000000000000000000000000000008152600401610956906113ec565b60405180910390fd5b428467ffffffffffffffff16116109ab576040517f08c379a00000000000000000000000000000000000000000000000000000000081526004016109a2906114c4565b60405180910390fd5b60008567ffffffffffffffff16116109f8576040517f08c379a00000000000000000000000000000000000000000000000000000000081526004016109ef90611530565b60405180910390fd5b868686868686604051602001610a1396959493929190611550565b604051602081830303815290604052805190602001209050600060016000898152602001908152602001600020600083815260200190815260200160002060010160109054906101000a900467ffffffffffffffff1667ffffffffffffffff1614610ab3576040517f08c379a0000000000000000000000000000000000000000000000000000000008152600401610aaa906115fd565b60405180910390fd5b6040518060e001604052808781526020018667ffffffffffffffff1681526020018567ffffffffffffffff1681526020018367ffffffffffffffff1681526020018415158152602001600015158152602001600015158152506001600089815260200190815260200160002060008381526020019081526020016000206000820151816000015560208201518160010160006101000a81548167ffffffffffffffff021916908367ffffffffffffffff16021790555060408201518160010160086101000a81548167ffffffffffffffff021916908367ffffffffffffffff16021790555060608201518160010160106101000a81548167ffffffffffffffff021916908367ffffffffffffffff16021790555060808201518160010160186101000a81548160ff02191690831515021790555060a08201518160010160196101000a81548160ff02191690831515021790555060c082015181600101601a6101000a81548160ff021916908315150217905550905050600260008881526020019081526020016000208190806001815401808255809150506001900390600052602060002001600090919091909150553373ffffffffffffffffffffffffffffffffffffffff16877f85fbcb571e25c3a981ae491fdfaf145c026b48a81addbb2882f03e1e37b5e4f8888888878988604051610cb59695949392919061161d565b60405180910390a39695505050505050565b6000806000600160008681526020019081526020016000206000858152602001908152602001600020905060008160010160109054906101000a900467ffffffffffffffff1667ffffffffffffffff161480610d31575080600101601a9054906101000a900460ff165b15610d43576000809250925050610e48565b8060010160089054906101000a900467ffffffffffffffff1667ffffffffffffffff16421115610d7a576000809250925050610e48565b8060010160189054906101000a900460ff168015610da657508060010160199054906101000a900460ff165b15610db8576000809250925050610e48565b8060010160189054906101000a900460ff1615610ded5760018160010160196101000a81548160ff0219169083151502179055505b847fbb87176fd3c96d05edfa3442ce96fe7801063fa23425d4ed09d072d0647ee17f8533604051610e1f92919061168d565b60405180910390a260018160010160009054906101000a900467ffffffffffffffff1692509250505b9250929050565b61010081565b608081565b6040518060e0016040528060008019168152602001600067ffffffffffffffff168152602001600067ffffffffffffffff168152602001600067ffffffffffffffff1681526020016000151581526020016000151581526020016000151581525090565b600073ffffffffffffffffffffffffffffffffffffffff82169050919050565b6000819050919050565b6000610f03610efe610ef984610ebe565b610ede565b610ebe565b9050919050565b6000610f1582610ee8565b9050919050565b6000610f2782610f0a565b9050919050565b610f3781610f1c565b82525050565b6000602082019050610f526000830184610f2e565b92915050565b600080fd5b6000819050919050565b610f7081610f5d565b8114610f7b57600080fd5b50565b600081359050610f8d81610f67565b92915050565b6000819050919050565b610fa681610f93565b8114610fb157600080fd5b50565b600081359050610fc381610f9d565b92915050565b60008060408385031215610fe057610fdf610f58565b5b6000610fee85828601610f7e565b9250506020610fff85828601610fb4565b9150509250929050565b61101281610f93565b82525050565b600067ffffffffffffffff82169050919050565b61103581611018565b82525050565b60008115159050919050565b6110508161103b565b82525050565b60e08201600082015161106c6000850182611009565b50602082015161107f602085018261102c565b506040820151611092604085018261102c565b5060608201516110a5606085018261102c565b5060808201516110b86080850182611047565b5060a08201516110cb60a0850182611047565b5060c08201516110de60c0850182611047565b50505050565b600060e0820190506110f96000830184611056565b92915050565b61110881611018565b82525050565b600060208201905061112360008301846110ff565b92915050565b6111328161103b565b82525050565b600060208201905061114d6000830184611129565b92915050565b61115c81610f93565b82525050565b600060e082019050611177600083018a611153565b61118460208301896110ff565b61119160408301886110ff565b61119e60608301876110ff565b6111ab6080830186611129565b6111b860a0830185611129565b6111c560c0830184611129565b98975050505050505050565b6111da81611018565b81146111e557600080fd5b50565b6000813590506111f7816111d1565b92915050565b6112068161103b565b811461121157600080fd5b50565b600081359050611223816111fd565b92915050565b60008060008060008060c0878903121561124657611245610f58565b5b600061125489828a01610f7e565b965050602061126589828a01610fb4565b955050604061127689828a016111e8565b945050606061128789828a016111e8565b935050608061129889828a01611214565b92505060a06112a989828a016111e8565b9150509295509295509295565b60006020820190506112cb6000830184611153565b92915050565b60006040820190506112e66000830185611129565b6112f360208301846110ff565b9392505050565b61130381610f5d565b82525050565b600060208201905061131e60008301846112fa565b92915050565b600061132f82610ebe565b9050919050565b61133f81611324565b811461134a57600080fd5b50565b60008151905061135c81611336565b92915050565b60006020828403121561137857611377610f58565b5b60006113868482850161134d565b91505092915050565b600082825260208201905092915050565b7f4e6f742076656869636c65206f776e6572000000000000000000000000000000600082015250565b60006113d660118361138f565b91506113e1826113a0565b602082019050919050565b60006020820190508181036000830152611405816113c9565b9050919050565b7f416c7265616479207265766f6b65640000000000000000000000000000000000600082015250565b6000611442600f8361138f565b915061144d8261140c565b602082019050919050565b6000602082019050818103600083015261147181611435565b9050919050565b7f416c726561647920657870697265640000000000000000000000000000000000600082015250565b60006114ae600f8361138f565b91506114b982611478565b602082019050919050565b600060208201905081810360008301526114dd816114a1565b9050919050565b7f456d7074792073636f7065000000000000000000000000000000000000000000600082015250565b600061151a600b8361138f565b9150611525826114e4565b602082019050919050565b600060208201905081810360008301526115498161150d565b9050919050565b600060c08201905061156560008301896112fa565b6115726020830188611153565b61157f60408301876110ff565b61158c60608301866110ff565b6115996080830185611129565b6115a660a08301846110ff565b979650505050505050565b7f4772616e7420616c726561647920657869737473000000000000000000000000600082015250565b60006115e760148361138f565b91506115f2826115b1565b602082019050919050565b60006020820190508181036000830152611616816115da565b9050919050565b600060c0820190506116326000830189611153565b61163f60208301886110ff565b61164c60408301876110ff565b61165960608301866110ff565b6116666080830185611129565b61167360a0830184611153565b979650505050505050565b61168781611324565b82525050565b60006040820190506116a26000830185611153565b6116af602083018461167e565b939250505056fea2646970667358221220f613c6e07457271374df478358501e6825f959c3f4150fd7462231c91be151b164736f6c63430008140033",
  "linkReferences": {},
  "deployedLinkReferences": {}
}