{
  "_format": "hh-sol-artifact-1",
  "contractName": "VehicleLifecycle",
  "sourceName": "contracts/VehicleLifecycle.sol",
  "abi": [
    {
      "inputs": [
        {
          "internalType": "address",
          "name": "_vehicleNFT",
          "type": "address"
        }
      ],
      "stateMutability": "nonpayable",
      "type": "constructor"
    },
    {
      "inputs": [],
      "name": "AccessControlBadConfirmation",
      "type": "error"
    },
    {
      "inputs": [
        {
          "internalType": "address",
          "name": "account",
          "type": "address"
        },
        {
          "internalType": "bytes32",
          "name": "neededRole",
          "type": "bytes32"
        }
      ],
      "name": "AccessControlUnauthorizedAccount",
      "type": "error"
    },
    {
      "anonymous": false,
      "inputs": [
        {
          "indexed": true,
          "internalType": "uint256",
          "name": "tokenId",
          "type": "uint256"
        },
        {
          "indexed": false,
          "internalType": "bytes32",
          "name": "claimNoHash",
          "type": "bytes32"
        },
        {
          "indexed": false,
          "internalType": "uint64",
          "name": "filedAt",
          "type": "uint64"
        },
        {
          "indexed": false,
          "internalType": "bytes32[]",
          "name": "evidenceHashes",
          "type": "bytes32[]"
        },
        {
          "indexed": false,
          "internalType": "enum VehicleLifecycle.ClaimSeverity",
          "name": "severity",
          "type": "uint8"
        }
      ],
      "name": "ClaimFiled",
      "type": "event"
    },
    {
      "anonymous": false,
      "inputs": [
        {
          "indexed": true,
          "internalType": "uint256",
          "name": "tokenId",
          "type": "uint256"
        },
        {
          "indexed": false,
          "internalType": "bytes32",
          "name": "claimNoHash",
          "type": "bytes32"
        },
        {
          "indexed": false,
          "internalType": "enum VehicleLifecycle.ClaimStatus",
          "name": "newStatus",
          "type": "uint8"
        }
      ],
      "name": "ClaimStatusUpdated",
      "type": "event"
    },
    {
      "anonymous": false,
      "inputs": [
        {
          "indexed": true,
          "internalType": "uint256",
          "name": "tokenId",
          "type": "uint256"
        },
        {
          "indexed": false,
          "internalType": "address",
          "name": "seller",
          "type": "address"
        },
        {
          "indexed": false,
          "internalType": "bytes32",
          "name": "buyerOwnerId",
          "type": "bytes32"
        },
        {
          "indexed": false,
          "internalType": "uint64",
          "name": "disclosedItemsMask",
          "type": "uint64"
        },
        {
          "indexed": false,
          "internalType": "bytes32",
          "name": "ackHash",
          "type": "bytes32"
        },
        {
          "indexed": false,
          "internalType": "uint64",
          "name": "signedAt",
          "type": "uint64"
        }
      ],
      "name": "DisclosureRecorded",
      "type": "event"
    },
    {
      "anonymous": false,
      "inputs": [
        {
          "indexed": true,
          "internalType": "uint256",
          "name": "tokenId",
          "type": "uint256"
        },
        {
          "indexed": false,
          "internalType": "uint32",
          "name": "eventType",
          "type": "uint32"
        },
        {
          "indexed": false,
          "internalType": "address",
          "name": "actor",
          "type": "address"
        },
        {
          "indexed": false,
          "internalType": "uint64",
          "name": "occurredAt",
          "type": "uint64"
        },
        {
          "indexed": false,
          "internalType": "bytes32",
          "name": "payloadHash",
          "type": "bytes32"
        },
        {
          "indexed": false,
          "internalType": "bytes32",
          "name": "evidenceHash",
          "type": "bytes32"
        }
      ],
      "name": "GenericEvent",
      "type": "event"
    },
    {
      "anonymous": false,
      "inputs": [
        {
          "indexed": true,
          "internalType": "uint256",
          "name": "tokenId",
          "type": "uint256"
        },
        {
          "indexed": true,
          "internalType": "address",
          "name": "insurer",
          "type": "address"
        },
        {
          "indexed": false,
          "internalType": "bytes32",
          "name": "policyNoHash",
          "type": "bytes32"
        },
        {
          "indexed": false,
          "internalType": "enum VehicleLifecycle.InsuranceAction",
          "name": "action",
          "type": "uint8"
        },
        {
          "indexed": false,
          "internalType": "uint64",
          "name": "validFrom",
          "type": "uint64"
        },
        {
          "indexed": false,
          "internalType": "uint64",
          "name": "validTo",
          "type": "uint64"
        },
        {
          "indexed": false,
          "internalType": "bytes32",
          "name": "coverageHash",
          "type": "bytes32"
        }
      ],
      "name": "InsurancePolicyEvent",
      "type": "event"
    },
    {
      "anonymous": false,
      "inputs": [
        {
          "indexed": true,
          "internalType": "uint256",
          "name": "tokenId",
          "type": "uint256"
        },
        {
          "indexed": true,
          "internalType": "address",
          "name": "workshop",
          "type": "address"
        },
        {
          "indexed": false,
          "internalType": "bytes32",
          "name": "writeConsentRefHash",
          "type": "bytes32"
        },
        {
          "indexed": false,
          "internalType": "uint32",
          "name": "mileageKm",
          "type": "uint32"
        },
        {
          "indexed": false,
          "internalType": "bytes32",
          "name": "maintenanceHash",
          "type": "bytes32"
        },
        {
          "indexed": false,
          "internalType": "bytes32",
          "name": "partsHash",
          "type": "bytes32"
        },
        {
          "indexed": false,
          "internalType": "uint8",
          "name": "accidentSeverity",
          "type": "uint8"
        },
        {
          "indexed": false,
          "internalType": "uint64",
          "name": "occurredAt",
          "type": "uint64"
        }
      ],
      "name": "MaintenanceLogged",
      "type": "event"
    },
    {
      "anonymous": false,
      "inputs": [
        {
          "indexed": true,
          "internalType": "uint256",
          "name": "tokenId",
          "type": "uint256"
        },
        {
          "indexed": true,
          "internalType": "address",
          "name": "from",
          "type": "address"
        },
        {
          "indexed": true,
          "internalType": "address",
          "name": "to",
          "type": "address"
        },
        {
          "indexed": false,
          "internalType": "uint8",
          "name": "reason",
          "type": "uint8"
        },
        {
          "indexed": false,
          "internalType": "bytes32",
          "name": "saleContractHash",
          "type": "bytes32"
        },
        {
          "indexed": false,
          "internalType": "bytes32",
          "name": "buyerOwnerId",
          "type": "bytes32"
        },
        {
          "indexed": false,
          "internalType": "uint64",
          "name": "deliveryAt",
          "type": "uint64"
        },
        {
          "indexed": false,
          "internalType": "bytes32",
          "name": "paymentRefHash",
          "type": "bytes32"
        }
      ],
      "name": "OwnershipTransferred",
      "type": "event"
    },
    {
      "anonymous": false,
      "inputs": [
        {
          "indexed": true,
          "internalType": "bytes32",
          "name": "role",
          "type": "bytes32"
        },
        {
          "indexed": true,
          "internalType": "bytes32",
          "name": "previousAdminRole",
          "type": "bytes32"
        },
        {
          "indexed": true,
          "internalType": "bytes32",
          "name": "newAdminRole",
          "type": "bytes32"
        }
      ],
      "name": "RoleAdminChanged",
      "type": "event"
    },
    {
      "anonymous": false,
      "inputs": [
        {
          "indexed": true,
          "internalType": "bytes32",
          "name": "role",
          "type": "bytes32"
        },
        {
          "indexed": true,
          "internalType": "address",
          "name": "account",
          "type": "address"
        },
        {
          "indexed": true,
          "internalType": "address",
          "name": "sender",
          "type": "address"
        }
      ],
      "name": "RoleGranted",
      "type": "event"
    },
    {
      "anonymous": false,
      "inputs": [
        {
          "indexed": true,
          "internalType": "bytes32",
          "name": "role",
          "type": "bytes32"
        },
        {
          "indexed": true,
          "internalType": "address",
          "name": "account",
          "type": "address"
        },
        {
          "indexed": true,
          "internalType": "address",
          "name": "sender",
          "type": "address"
        }
      ],
      "name": "RoleRevoked",
      "type": "event"
    },
    {
      "inputs": [],
      "name": "DEALER_ROLE",
      "outputs": [
        {
          "internalType": "bytes32",
          "name": "",
          "type": "bytes32"
        }
      ],
      "stateMutability": "view",
      "type": "function"
    },
    {
      "inputs": [],
      "name": "DEFAULT_ADMIN_ROLE",
      "outputs": [
        {
          "internalType": "bytes32",
          "name": "",
          "type": "bytes32"
        }
      ],
      "stateMutability": "view",
      "type": "function"
    },
    {
      "inputs": [],
      "name": "INSURER_ROLE",
      "outputs": [
        {
          "internalType": "bytes32",
          "name": "",
          "type": "bytes32"
        }
      ],
      "stateMutability": "view",
      "type": "function"
    },
    {
      "inputs": [],
      "name": "WORKSHOP_ROLE",
      "outputs": [
        {
          "internalType": "bytes32",
          "name": "",
          "type": "bytes32"
        }
      ],
      "stateMutability": "view",
      "type": "function"
    },
    {
      "inputs": [
        {
          "internalType": "uint256",
          "name": "tokenId",
          "type": "uint256"
        },
        {
          "internalType": "bytes32",
          "name": "claimNoHash",
          "type": "bytes32"
        },
        {
          "internalType": "bytes32[]",
          "name": "evidenceHashes",
          "type": "bytes32[]"
        },
        {
          "internalType": "enum VehicleLifecycle.ClaimSeverity",
          "name": "severity",
          "type": "uint8"
        }
      ],
      "name": "fileClaim",
      "outputs": [],
      "stateMutability": "nonpayable",
      "type": "function"
    },
    {
      "inputs": [
        {
          "internalType": "bytes32",
          "name": "role",
          "type": "bytes32"
        }
      ],
      "name": "getRoleAdmin",
      "outputs": [
        {
          "internalType": "bytes32",
          "name": "",
          "type": "bytes32"
        }
      ],
      "stateMutability": "view",
      "type": "function"
    },
    {
      "inputs": [
        {
          "internalType": "bytes32",
          "name": "role",
          "type": "bytes32"
        },
        {
          "internalType": "address",
          "name": "account",
          "type": "address"
        }
      ],
      "name": "grantRole",
      "outputs": [],
      "stateMutability": "nonpayable",
      "type": "function"
    },
    {
      "inputs": [
        {
          "internalType": "uint256",
          "name": "tokenId",
          "type": "uint256"
        },
        {
          "internalType": "address",
          "name": "workshop",
          "type": "address"
        },
        {
          "internalType": "uint64",
          "name": "scopeMask",
          "type": "uint64"
        },
        {
          "internalType": "uint64",
          "name": "expiresAt",
          "type": "uint64"
        },
        {
          "internalType": "bool",
          "name": "singleUse",
          "type": "bool"
        },
        {
          "internalType": "uint64",
          "name": "nonce",
          "type": "uint64"
        }
      ],
      "name": "grantWriteConsent",
      "outputs": [],
      "stateMutability": "nonpayable",
      "type": "function"
    },
    {
      "inputs": [
        {
          "internalType": "bytes32",
          "name": "role",
          "type": "bytes32"
        },
        {
          "internalType": "address",
          "name": "account",
          "type": "address"
        }
      ],
      "name": "hasRole",
      "outputs": [
        {
          "internalType": "bool",
          "name": "",
          "type": "bool"
        }
      ],
      "stateMutability": "view",
      "type": "function"
    },
    {
      "inputs": [
        {
          "internalType": "uint256",
          "name": "tokenId",
          "type": "uint256"
        },
        {
          "internalType": "uint32",
          "name": "eventType",
          "type": "uint32"
        },
        {
          "internalType": "uint64",
          "name": "occurredAt",
          "type": "uint64"
        },
        {
          "internalType": "bytes32",
          "name": "payloadHash",
          "type": "bytes32"
        },
        {
          "internalType": "bytes32",
          "name": "evidenceHash",
          "type": "bytes32"
        }
      ],
      "name": "logEvent",
      "outputs": [],
      "stateMutability": "nonpayable",
      "type": "function"
    },
    {
      "inputs": [
        {
          "internalType": "uint256",
          "name": "tokenId",
          "type": "uint256"
        },
        {
          "internalType": "bytes32",
          "name": "writeConsentRefHash",
          "type": "bytes32"
        },
        {
          "internalType": "uint32",
          "name": "mileageKm",
          "type": "uint32"
        },
        {
          "internalType": "bytes32",
          "name": "maintenanceHash",
          "type": "bytes32"
        },
        {
          "internalType": "bytes32",
          "name": "partsHash",
          "type": "bytes32"
        },
        {
          "internalType": "uint8",
          "name": "accidentSeverity",
          "type": "uint8"
        },
        {
          "internalType": "uint64",
          "name": "occurredAt",
          "type": "uint64"
        }
      ],
      "name": "logMaintenance",
      "outputs": [],
      "stateMutability": "nonpayable",
      "type": "function"
    },
    {
      "inputs": [
        {
          "internalType": "uint256",
          "name": "tokenId",
          "type": "uint256"
        },
        {
          "internalType": "bytes32",
          "name": "buyerOwnerId",
          "type": "bytes32"
        },
        {
          "internalType": "uint64",
          "name": "disclosedItemsMask",
          "type": "uint64"
        },
        {
          "internalType": "bytes32",
          "name": "ackHash",
          "type": "bytes32"
        }
      ],
      "name": "recordDisclosure",
      "outputs": [],
      "stateMutability": "nonpayable",
      "type": "function"
    },
    {
      "inputs": [
        {
          "internalType": "uint256",
          "name": "tokenId",
          "type": "uint256"
        },
        {
          "internalType": "bytes32",
          "name": "policyNoHash",
          "type": "bytes32"
        },
        {
          "internalType": "enum VehicleLifecycle.InsuranceAction",
          "name": "action",
          "type": "uint8"
        },
        {
          "internalType": "uint64",
          "name": "validFrom",
          "type": "uint64"
        },
        {
          "internalType": "uint64",
          "name": "validTo",
          "type": "uint64"
        },
        {
          "internalType": "bytes32",
          "name": "coverageHash",
          "type": "bytes32"
        }
      ],
      "name": "recordInsurancePolicy",
      "outputs": [],
      "stateMutability": "nonpayable",
      "type": "function"
    },
    {
      "inputs": [
        {
          "internalType": "uint256",
          "name": "tokenId",
          "type": "uint256"
        },
        {
          "internalType": "address",
          "name": "to",
          "type": "address"
        },
        {
          "internalType": "uint8",
          "name": "reason",
          "type": "uint8"
        },
        {
          "internalType": "bytes32",
          "name": "saleContractHash",
          "type": "bytes32"
        },
        {
          "internalType": "bytes32",
          "name": "buyerOwnerId",
          "type": "bytes32"
        },
        {
          "internalType": "bytes32",
          "name": "paymentRefHash",
          "type": "bytes32"
        }
      ],
      "name": "recordTransfer",
      "outputs": [],
      "stateMutability": "nonpayable",
      "type": "function"
    },
    {
      "inputs": [
        {
          "internalType": "bytes32",
          "name": "role",
          "type": "bytes32"
        },
        {
          "internalType": "address",
          "name": "callerConfirmation",
          "type": "address"
        }
      ],
      "name": "renounceRole",
      "outputs": [],
      "stateMutability": "nonpayable",
      "type": "function"
    },
    {
      "inputs": [
        {
          "internalType": "bytes32",
          "name": "role",
          "type": "bytes32"
        },
        {
          "internalType": "address",
          "name": "account",
          "type": "address"
        }
      ],
      "name": "revokeRole",
      "outputs": [],
      "stateMutability": "nonpayable",
      "type": "function"
    },
    {
      "inputs": [
        {
          "internalType": "uint256",
          "name": "tokenId",
          "type": "uint256"
        },
        {
          "internalType": "address",
          "name": "workshop",
          "type": "address"
        }
      ],
      "name": "revokeWriteConsent",
      "outputs": [],
      "stateMutability": "nonpayable",
      "type": "function"
    },
    {
      "inputs": [
        {
          "internalType": "bytes4",
          "name": "interfaceId",
          "type": "bytes4"
        }
      ],
      "name": "supportsInterface",
      "outputs": [
        {
          "internalType": "bool",
          "name": "",
          "type": "bool"
        }
      ],
      "stateMutability": "view",
      "type": "function"
    },
    {
      "inputs": [
        {
          "internalType": "uint256",
          "name": "tokenId",
          "type": "uint256"
        },
        {
          "internalType": "bytes32",
          "name": "claimNoHash",
          "type": "bytes32"
        },
        {
          "internalType": "enum VehicleLifecycle.ClaimStatus",
          "name": "newStatus",
          "type": "uint8"
        }
      ],
      "name": "updateClaimStatus",
      "outputs": [],
      "stateMutability": "nonpayable",
      "type": "function"
    },
    {
      "inputs": [],
      "name": "vehicleNFT",
      "outputs": [
        {
          "internalType": "contract VehicleNFT",
          "name": "",
          "type": "address"
        }
      ],
      "stateMutability": "view",
      "type": "function"
    },
    {
      "inputs": [
        {
          "internalType": "uint256",
          "name": "",
          "type": "uint256"
        },
        {
          "internalType": "address",
          "name": "",
          "type": "address"
        }
      ],
      "name": "writeConsents",
      "outputs": [
        {
          "internalType": "uint64",
          "name": "",
          "type": "uint64"
        }
      ],
      "stateMutability": "view",
      "type": "function"
    }
  ],
  "bytecode": "0x60806040523480156200001157600080fd5b5060405162002f1b38038062002f1b833981810160405281019062000037919062000274565b80600160006101000a81548173ffffffffffffffffffffffffffffffffffffffff021916908373ffffffffffffffffffffffffffffffffffffffff1602179055506200008d6000801b336200009560201b60201c565b5050620002a6565b6000620000a983836200019860201b60201c565b6200018d57600160008085815260200190815260200160002060000160008473ffffffffffffffffffffffffffffffffffffffff1673ffffffffffffffffffffffffffffffffffffffff16815260200190815260200160002060006101000a81548160ff021916908315150217905550620001296200020260201b60201c565b73ffffffffffffffffffffffffffffffffffffffff168273ffffffffffffffffffffffffffffffffffffffff16847f2f8788117e7eff1d82e926ec794901d17c78024a50270940304540a733656f0d60405160405180910390a46001905062000192565b600090505b92915050565b600080600084815260200190815260200160002060000160008373ffffffffffffffffffffffffffffffffffffffff1673ffffffffffffffffffffffffffffffffffffffff16815260200190815260200160002060009054906101000a900460ff16905092915050565b600033905090565b600080fd5b600073ffffffffffffffffffffffffffffffffffffffff82169050919050565b60006200023c826200020f565b9050919050565b6200024e816200022f565b81146200025a57600080fd5b50565b6000815190506200026e8162000243565b92915050565b6000602082840312156200028d576200028c6200020a565b5b60006200029d848285016200025d565b91505092915050565b612c6580620002b66000396000f3fe608060405234801561001057600080fd5b50600436106101375760003560e01c806357d278fa116100b8578063a217fddf1161007c578063a217fddf14610336578063a2f0a3ee14610354578063b54a008114610370578063b595bc571461038c578063d547741f146103a8578063f8ce8104146103c457610137565b806357d278fa146102825780635f3a771c1461029e5780637fb0ec2f146102ba57806391d14854146102ea57806395a92acf1461031a57610137565b80632f2ff15d116100ff5780632f2ff15d146101f45780633466674d1461021057806334d6ff4c1461022c57806336568abe1461024a5780634eadd5bc1461026657610137565b806301ffc9a71461013c578063056c99891461016c5780630cc64b3f1461018a578063189097fc146101a6578063248a9ca3146101c4575b600080fd5b61015660048036038101906101519190611b41565b6103e2565b6040516101639190611b89565b60405180910390f35b61017461045c565b6040516101819190611bbd565b60405180910390f35b6101a4600480360381019061019f9190611cd8565b610480565b005b6101ae61067c565b6040516101bb9190611dc4565b60405180910390f35b6101de60048036038101906101d99190611e0b565b6106a2565b6040516101eb9190611bbd565b60405180910390f35b61020e60048036038101906102099190611e38565b6106c1565b005b61022a60048036038101906102259190611eed565b6106e3565b005b610234610974565b6040516102419190611bbd565b60405180910390f35b610264600480360381019061025f9190611e38565b610998565b005b610280600480360381019061027b9190611f8f565b610a13565b005b61029c6004803603810190610297919061200a565b610b66565b005b6102b860048036038101906102b39190612096565b610df8565b005b6102d460048036038101906102cf91906120e9565b610f6e565b6040516102e19190612138565b60405180910390f35b61030460048036038101906102ff9190611e38565b610fa4565b6040516103119190611b89565b60405180910390f35b610334600480360381019061032f9190612178565b61100e565b005b61033e6111a4565b60405161034b9190611bbd565b60405180910390f35b61036e6004803603810190610369919061228f565b6111ab565b005b61038a600480360381019061038591906120e9565b611329565b005b6103a660048036038101906103a19190612317565b611509565b005b6103c260048036038101906103bd9190611e38565b6117df565b005b6103cc611801565b6040516103d99190611bbd565b60405180910390f35b60007f7965db0b000000000000000000000000000000000000000000000000000000007bffffffffffffffffffffffffffffffffffffffffffffffffffffffff1916827bffffffffffffffffffffffffffffffffffffffffffffffffffffffff19161480610455575061045482611825565b5b9050919050565b7feb0a07781e3ee843c0d85f7381c2e1a1e1a6ea86bcdcd944ef649d46e7dcd97281565b853373ffffffffffffffffffffffffffffffffffffffff16600160009054906101000a900473ffffffffffffffffffffffffffffffffffffffff1673ffffffffffffffffffffffffffffffffffffffff16636352211e836040518263ffffffff1660e01b81526004016104f391906123b3565b602060405180830381865afa158015610510573d6000803e3d6000fd5b505050506040513d601f19601f8201168201806040525081019061053491906123e3565b73ffffffffffffffffffffffffffffffffffffffff161461058a576040517f08c379a00000000000000000000000000000000000000000000000000000000081526004016105819061246d565b60405180910390fd5b846002600089815260200190815260200160002060008873ffffffffffffffffffffffffffffffffffffffff1673ffffffffffffffffffffffffffffffffffffffff16815260200190815260200160002060006101000a81548167ffffffffffffffff021916908367ffffffffffffffff160217905550867fa9d572ae835afb03390bcda054aaae7f15f7e00557ff70aa77d1aa82ac9fa988606433428a8a8a8a8a60405160200161064095949392919061249c565b604051602081830303815290604052805190602001206000801b60405161066b95949392919061252a565b60405180910390a250505050505050565b600160009054906101000a900473ffffffffffffffffffffffffffffffffffffffff1681565b6000806000838152602001908152602001600020600101549050919050565b6106ca826106a2565b6106d38161188f565b6106dd83836118a3565b50505050565b7fa5651363dc3ad2710be9dfd76c472caddc2ba0ee7485770637a1a6ab1790058261070d8161188f565b87600073ffffffffffffffffffffffffffffffffffffffff16600160009054906101000a900473ffffffffffffffffffffffffffffffffffffffff1673ffffffffffffffffffffffffffffffffffffffff16636352211e836040518263ffffffff1660e01b815260040161078191906123b3565b602060405180830381865afa15801561079e573d6000803e3d6000fd5b505050506040513d601f19601f820116820180604052508101906107c291906123e3565b73ffffffffffffffffffffffffffffffffffffffff1603610818576040517f08c379a000000000000000000000000000000000000000000000000000000000815260040161080f906125c9565b60405180910390fd5b6000600260008b815260200190815260200160002060003373ffffffffffffffffffffffffffffffffffffffff1673ffffffffffffffffffffffffffffffffffffffff16815260200190815260200160002060009054906101000a900467ffffffffffffffff1667ffffffffffffffff16116108c9576040517f08c379a00000000000000000000000000000000000000000000000000000000081526004016108c090612635565b60405180910390fd5b60038460ff161115610910576040517f08c379a0000000000000000000000000000000000000000000000000000000008152600401610907906126a1565b60405180910390fd5b3373ffffffffffffffffffffffffffffffffffffffff16897fbb192778b3388827de38b99d7450bceb21b3a19e1cb724de72e99e5a1ce7883c8a8a8a8a8a8a604051610961969594939291906126df565b60405180910390a3505050505050505050565b7fcf75f067314df4d0527f2a9e12148d8bd7c8a3f7235b2171d24fa195d2c3ecb981565b6109a0611994565b73ffffffffffffffffffffffffffffffffffffffff168173ffffffffffffffffffffffffffffffffffffffff1614610a04576040517f6697b23200000000000000000000000000000000000000000000000000000000815260040160405180910390fd5b610a0e828261199c565b505050565b84600073ffffffffffffffffffffffffffffffffffffffff16600160009054906101000a900473ffffffffffffffffffffffffffffffffffffffff1673ffffffffffffffffffffffffffffffffffffffff16636352211e836040518263ffffffff1660e01b8152600401610a8791906123b3565b602060405180830381865afa158015610aa4573d6000803e3d6000fd5b505050506040513d601f19601f82011682018060405250810190610ac891906123e3565b73ffffffffffffffffffffffffffffffffffffffff1603610b1e576040517f08c379a0000000000000000000000000000000000000000000000000000000008152600401610b15906125c9565b60405180910390fd5b857fa9d572ae835afb03390bcda054aaae7f15f7e00557ff70aa77d1aa82ac9fa9888633878787604051610b56959493929190612740565b60405180910390a2505050505050565b83600073ffffffffffffffffffffffffffffffffffffffff16600160009054906101000a900473ffffffffffffffffffffffffffffffffffffffff1673ffffffffffffffffffffffffffffffffffffffff16636352211e836040518263ffffffff1660e01b8152600401610bda91906123b3565b602060405180830381865afa158015610bf7573d6000803e3d6000fd5b505050506040513d601f19601f82011682018060405250810190610c1b91906123e3565b73ffffffffffffffffffffffffffffffffffffffff1603610c71576040517f08c379a0000000000000000000000000000000000000000000000000000000008152600401610c68906125c9565b60405180910390fd5b6000600160009054906101000a900473ffffffffffffffffffffffffffffffffffffffff1673ffffffffffffffffffffffffffffffffffffffff16636352211e876040518263ffffffff1660e01b8152600401610cce91906123b3565b602060405180830381865afa158015610ceb573d6000803e3d6000fd5b505050506040513d601f19601f82011682018060405250810190610d0f91906123e3565b90508073ffffffffffffffffffffffffffffffffffffffff163373ffffffffffffffffffffffffffffffffffffffff161480610d715750610d707fcf75f067314df4d0527f2a9e12148d8bd7c8a3f7235b2171d24fa195d2c3ecb933610fa4565b5b610db0576040517f08c379a0000000000000000000000000000000000000000000000000000000008152600401610da7906127df565b60405180910390fd5b857f533d76dde32be522b1b8d6d50139260705a8e5a537968072d4f2efaf3bd0b0303387878742604051610de89594939291906127ff565b60405180910390a2505050505050565b7feb0a07781e3ee843c0d85f7381c2e1a1e1a6ea86bcdcd944ef649d46e7dcd972610e228161188f565b83600073ffffffffffffffffffffffffffffffffffffffff16600160009054906101000a900473ffffffffffffffffffffffffffffffffffffffff1673ffffffffffffffffffffffffffffffffffffffff16636352211e836040518263ffffffff1660e01b8152600401610e9691906123b3565b602060405180830381865afa158015610eb3573d6000803e3d6000fd5b505050506040513d601f19601f82011682018060405250810190610ed791906123e3565b73ffffffffffffffffffffffffffffffffffffffff1603610f2d576040517f08c379a0000000000000000000000000000000000000000000000000000000008152600401610f24906125c9565b60405180910390fd5b847f9dfc9cd1f8c25cef94165e20376a8c3c853978b686d06b313f9e63870153949d8585604051610f5f9291906128c9565b60405180910390a25050505050565b60026020528160005260406000206020528060005260406000206000915091509054906101000a900467ffffffffffffffff1681565b600080600084815260200190815260200160002060000160008373ffffffffffffffffffffffffffffffffffffffff1673ffffffffffffffffffffffffffffffffffffffff16815260200190815260200160002060009054906101000a900460ff16905092915050565b7feb0a07781e3ee843c0d85f7381c2e1a1e1a6ea86bcdcd944ef649d46e7dcd9726110388161188f565b86600073ffffffffffffffffffffffffffffffffffffffff16600160009054906101000a900473ffffffffffffffffffffffffffffffffffffffff1673ffffffffffffffffffffffffffffffffffffffff16636352211e836040518263ffffffff1660e01b81526004016110ac91906123b3565b602060405180830381865afa1580156110c9573d6000803e3d6000fd5b505050506040513d601f19601f820116820180604052508101906110ed91906123e3565b73ffffffffffffffffffffffffffffffffffffffff1603611143576040517f08c379a000000000000000000000000000000000000000000000000000000000815260040161113a906125c9565b60405180910390fd5b3373ffffffffffffffffffffffffffffffffffffffff16887f5cf99e173f7718dde80113eb6eb3d673000e16f7a86a2ab7fc977c4479db393b898989898960405161119295949392919061293a565b60405180910390a35050505050505050565b6000801b81565b7feb0a07781e3ee843c0d85f7381c2e1a1e1a6ea86bcdcd944ef649d46e7dcd9726111d58161188f565b85600073ffffffffffffffffffffffffffffffffffffffff16600160009054906101000a900473ffffffffffffffffffffffffffffffffffffffff1673ffffffffffffffffffffffffffffffffffffffff16636352211e836040518263ffffffff1660e01b815260040161124991906123b3565b602060405180830381865afa158015611266573d6000803e3d6000fd5b505050506040513d601f19601f8201168201806040525081019061128a91906123e3565b73ffffffffffffffffffffffffffffffffffffffff16036112e0576040517f08c379a00000000000000000000000000000000000000000000000000000000081526004016112d7906125c9565b60405180910390fd5b867fc418d93a6dd74d50a48ac5c63f8eea45dd7a493ab46cf303eb27b431c4d0f0538742888888604051611318959493929190612a50565b60405180910390a250505050505050565b813373ffffffffffffffffffffffffffffffffffffffff16600160009054906101000a900473ffffffffffffffffffffffffffffffffffffffff1673ffffffffffffffffffffffffffffffffffffffff16636352211e836040518263ffffffff1660e01b815260040161139c91906123b3565b602060405180830381865afa1580156113b9573d6000803e3d6000fd5b505050506040513d601f19601f820116820180604052508101906113dd91906123e3565b73ffffffffffffffffffffffffffffffffffffffff1614611433576040517f08c379a000000000000000000000000000000000000000000000000000000000815260040161142a9061246d565b60405180910390fd5b6002600084815260200190815260200160002060008373ffffffffffffffffffffffffffffffffffffffff1673ffffffffffffffffffffffffffffffffffffffff16815260200190815260200160002060006101000a81549067ffffffffffffffff0219169055827fa9d572ae835afb03390bcda054aaae7f15f7e00557ff70aa77d1aa82ac9fa98860653342866040516020016114d19190612a9e565b604051602081830303815290604052805190602001206000801b6040516114fc959493929190612af4565b60405180910390a2505050565b85600073ffffffffffffffffffffffffffffffffffffffff16600160009054906101000a900473ffffffffffffffffffffffffffffffffffffffff1673ffffffffffffffffffffffffffffffffffffffff16636352211e836040518263ffffffff1660e01b815260040161157d91906123b3565b602060405180830381865afa15801561159a573d6000803e3d6000fd5b505050506040513d601f19601f820116820180604052508101906115be91906123e3565b73ffffffffffffffffffffffffffffffffffffffff1603611614576040517f08c379a000000000000000000000000000000000000000000000000000000000815260040161160b906125c9565b60405180910390fd5b6000600160009054906101000a900473ffffffffffffffffffffffffffffffffffffffff1673ffffffffffffffffffffffffffffffffffffffff16636352211e896040518263ffffffff1660e01b815260040161167191906123b3565b602060405180830381865afa15801561168e573d6000803e3d6000fd5b505050506040513d601f19601f820116820180604052508101906116b291906123e3565b90508073ffffffffffffffffffffffffffffffffffffffff163373ffffffffffffffffffffffffffffffffffffffff16148061171457506117137fcf75f067314df4d0527f2a9e12148d8bd7c8a3f7235b2171d24fa195d2c3ecb933610fa4565b5b8061172857506117276000801b33610fa4565b5b611767576040517f08c379a000000000000000000000000000000000000000000000000000000000815260040161175e90612b93565b60405180910390fd5b8673ffffffffffffffffffffffffffffffffffffffff168173ffffffffffffffffffffffffffffffffffffffff16897f13fc9665b41f0ca6a424c8cca875378e921e0058e0b3fd2ad0d0858c4906aa59898989428a6040516117cd959493929190612bb3565b60405180910390a45050505050505050565b6117e8826106a2565b6117f18161188f565b6117fb838361199c565b50505050565b7fa5651363dc3ad2710be9dfd76c472caddc2ba0ee7485770637a1a6ab1790058281565b60007f01ffc9a7000000000000000000000000000000000000000000000000000000007bffffffffffffffffffffffffffffffffffffffffffffffffffffffff1916827bffffffffffffffffffffffffffffffffffffffffffffffffffffffff1916149050919050565b6118a08161189b611994565b611a8e565b50565b60006118af8383610fa4565b61198957600160008085815260200190815260200160002060000160008473ffffffffffffffffffffffffffffffffffffffff1673ffffffffffffffffffffffffffffffffffffffff16815260200190815260200160002060006101000a81548160ff021916908315150217905550611926611994565b73ffffffffffffffffffffffffffffffffffffffff168273ffffffffffffffffffffffffffffffffffffffff16847f2f8788117e7eff1d82e926ec794901d17c78024a50270940304540a733656f0d60405160405180910390a46001905061198e565b600090505b92915050565b600033905090565b60006119a88383610fa4565b15611a8357600080600085815260200190815260200160002060000160008473ffffffffffffffffffffffffffffffffffffffff1673ffffffffffffffffffffffffffffffffffffffff16815260200190815260200160002060006101000a81548160ff021916908315150217905550611a20611994565b73ffffffffffffffffffffffffffffffffffffffff168273ffffffffffffffffffffffffffffffffffffffff16847ff6391f5c32d9c69d2a47ea670b442974b53935d1edc7fd64eb21e047a839171b60405160405180910390a460019050611a88565b600090505b92915050565b611a988282610fa4565b611adb5780826040517fe2517d3f000000000000000000000000000000000000000000000000000000008152600401611ad2929190612c06565b60405180910390fd5b5050565b600080fd5b600080fd5b60007fffffffff0000000000000000000000000000000000000000000000000000000082169050919050565b611b1e81611ae9565b8114611b2957600080fd5b50565b600081359050611b3b81611b15565b92915050565b600060208284031215611b5757611b56611adf565b5b6000611b6584828501611b2c565b91505092915050565b60008115159050919050565b611b8381611b6e565b82525050565b6000602082019050611b9e6000830184611b7a565b92915050565b6000819050919050565b611bb781611ba4565b82525050565b6000602082019050611bd26000830184611bae565b92915050565b6000819050919050565b611beb81611bd8565b8114611bf657600080fd5b50565b600081359050611c0881611be2565b92915050565b600073ffffffffffffffffffffffffffffffffffffffff82169050919050565b6000611c3982611c0e565b9050919050565b611c4981611c2e565b8114611c5457600080fd5b50565b600081359050611c6681611c40565b92915050565b600067ffffffffffffffff82169050919050565b611c8981611c6c565b8114611c9457600080fd5b50565b600081359050611ca681611c80565b92915050565b611cb581611b6e565b8114611cc057600080fd5b50565b600081359050611cd281611cac565b92915050565b60008060008060008060c08789031215611cf557611cf4611adf565b5b6000611d0389828a01611bf9565b9650506020611d1489828a01611c57565b9550506040611d2589828a01611c97565b9450506060611d3689828a01611c97565b9350506080611d4789828a01611cc3565b92505060a0611d5889828a01611c97565b9150509295509295509295565b6000819050919050565b6000611d8a611d85611d8084611c0e565b611d65565b611c0e565b9050919050565b6000611d9c82611d6f565b9050919050565b6000611dae82611d91565b9050919050565b611dbe81611da3565b82525050565b6000602082019050611dd96000830184611db5565b92915050565b611de881611ba4565b8114611df357600080fd5b50565b600081359050611e0581611ddf565b92915050565b600060208284031215611e2157611e20611adf565b5b6000611e2f84828501611df6565b91505092915050565b60008060408385031215611e4f57611e4e611adf565b5b6000611e5d85828601611df6565b9250506020611e6e85828601611c57565b9150509250929050565b600063ffffffff82169050919050565b611e9181611e78565b8114611e9c57600080fd5b50565b600081359050611eae81611e88565b92915050565b600060ff82169050919050565b611eca81611eb4565b8114611ed557600080fd5b50565b600081359050611ee781611ec1565b92915050565b600080600080600080600060e0888a031215611f0c57611f0b611adf565b5b6000611f1a8a828b01611bf9565b9750506020611f2b8a828b01611df6565b9650506040611f3c8a828b01611e9f565b9550506060611f4d8a828b01611df6565b9450506080611f5e8a828b01611df6565b93505060a0611f6f8a828b01611ed8565b92505060c0611f808a828b01611c97565b91505092959891949750929550565b600080600080600060a08688031215611fab57611faa611adf565b5b6000611fb988828901611bf9565b9550506020611fca88828901611e9f565b9450506040611fdb88828901611c97565b9350506060611fec88828901611df6565b9250506080611ffd88828901611df6565b9150509295509295909350565b6000806000806080858703121561202457612023611adf565b5b600061203287828801611bf9565b945050602061204387828801611df6565b935050604061205487828801611c97565b925050606061206587828801611df6565b91505092959194509250565b6006811061207e57600080fd5b50565b60008135905061209081612071565b92915050565b6000806000606084860312156120af576120ae611adf565b5b60006120bd86828701611bf9565b93505060206120ce86828701611df6565b92505060406120df86828701612081565b9150509250925092565b60008060408385031215612100576120ff611adf565b5b600061210e85828601611bf9565b925050602061211f85828601611c57565b9150509250929050565b61213281611c6c565b82525050565b600060208201905061214d6000830184612129565b92915050565b6004811061216057600080fd5b50565b60008135905061217281612153565b92915050565b60008060008060008060c0878903121561219557612194611adf565b5b60006121a389828a01611bf9565b96505060206121b489828a01611df6565b95505060406121c589828a01612163565b94505060606121d689828a01611c97565b93505060806121e789828a01611c97565b92505060a06121f889828a01611df6565b9150509295509295509295565b600080fd5b600080fd5b600080fd5b60008083601f84011261222a57612229612205565b5b8235905067ffffffffffffffff8111156122475761224661220a565b5b6020830191508360208202830111156122635761226261220f565b5b9250929050565b6004811061227757600080fd5b50565b6000813590506122898161226a565b92915050565b6000806000806000608086880312156122ab576122aa611adf565b5b60006122b988828901611bf9565b95505060206122ca88828901611df6565b945050604086013567ffffffffffffffff8111156122eb576122ea611ae4565b5b6122f788828901612214565b9350935050606061230a8882890161227a565b9150509295509295909350565b60008060008060008060c0878903121561233457612333611adf565b5b600061234289828a01611bf9565b965050602061235389828a01611c57565b955050604061236489828a01611ed8565b945050606061237589828a01611df6565b935050608061238689828a01611df6565b92505060a061239789828a01611df6565b9150509295509295509295565b6123ad81611bd8565b82525050565b60006020820190506123c860008301846123a4565b92915050565b6000815190506123dd81611c40565b92915050565b6000602082840312156123f9576123f8611adf565b5b6000612407848285016123ce565b91505092915050565b600082825260208201905092915050565b7f4e6f742076656869636c65206f776e6572000000000000000000000000000000600082015250565b6000612457601183612410565b915061246282612421565b602082019050919050565b600060208201905081810360008301526124868161244a565b9050919050565b61249681611c2e565b82525050565b600060a0820190506124b1600083018861248d565b6124be6020830187612129565b6124cb6040830186612129565b6124d86060830185611b7a565b6124e56080830184612129565b9695505050505050565b6000819050919050565b600061251461250f61250a846124ef565b611d65565b611e78565b9050919050565b612524816124f9565b82525050565b600060a08201905061253f600083018861251b565b61254c602083018761248d565b6125596040830186612129565b6125666060830185611bae565b6125736080830184611bae565b9695505050505050565b7f56656869636c6520646f6573206e6f7420657869737400000000000000000000600082015250565b60006125b3601683612410565b91506125be8261257d565b602082019050919050565b600060208201905081810360008301526125e2816125a6565b9050919050565b7f4e6f20777269746520636f6e73656e7400000000000000000000000000000000600082015250565b600061261f601083612410565b915061262a826125e9565b602082019050919050565b6000602082019050818103600083015261264e81612612565b9050919050565b7f496e76616c696420736576657269747900000000000000000000000000000000600082015250565b600061268b601083612410565b915061269682612655565b602082019050919050565b600060208201905081810360008301526126ba8161267e565b9050919050565b6126ca81611e78565b82525050565b6126d981611eb4565b82525050565b600060c0820190506126f46000830189611bae565b61270160208301886126c1565b61270e6040830187611bae565b61271b6060830186611bae565b61272860808301856126d0565b61273560a0830184612129565b979650505050505050565b600060a08201905061275560008301886126c1565b612762602083018761248d565b61276f6040830186612129565b61277c6060830185611bae565b6127896080830184611bae565b9695505050505050565b7f4e6f742073656c6c657200000000000000000000000000000000000000000000600082015250565b60006127c9600a83612410565b91506127d482612793565b602082019050919050565b600060208201905081810360008301526127f8816127bc565b9050919050565b600060a082019050612814600083018861248d565b6128216020830187611bae565b61282e6040830186612129565b61283b6060830185611bae565b6128486080830184612129565b9695505050505050565b7f4e487b7100000000000000000000000000000000000000000000000000000000600052602160045260246000fd5b6006811061289257612891612852565b5b50565b60008190506128a382612881565b919050565b60006128b382612895565b9050919050565b6128c3816128a8565b82525050565b60006040820190506128de6000830185611bae565b6128eb60208301846128ba565b9392505050565b6004811061290357612902612852565b5b50565b6000819050612914826128f2565b919050565b600061292482612906565b9050919050565b61293481612919565b82525050565b600060a08201905061294f6000830188611bae565b61295c602083018761292b565b6129696040830186612129565b6129766060830185612129565b6129836080830184611bae565b9695505050505050565b600082825260208201905092915050565b600080fd5b82818337505050565b60006129b8838561298d565b93507f07ffffffffffffffffffffffffffffffffffffffffffffffffffffffffffffff8311156129eb576129ea61299e565b5b6020830292506129fc8385846129a3565b82840190509392505050565b60048110612a1957612a18612852565b5b50565b6000819050612a2a82612a08565b919050565b6000612a3a82612a1c565b9050919050565b612a4a81612a2f565b82525050565b6000608082019050612a656000830188611bae565b612a726020830187612129565b8181036040830152612a858185876129ac565b9050612a946060830184612a41565b9695505050505050565b6000602082019050612ab3600083018461248d565b92915050565b6000819050919050565b6000612ade612ad9612ad484612ab9565b611d65565b611e78565b9050919050565b612aee81612ac3565b82525050565b600060a082019050612b096000830188612ae5565b612b16602083018761248d565b612b236040830186612129565b612b306060830185611bae565b612b3d6080830184611bae565b9695505050505050565b7f4e6f7420617574686f72697a6564000000000000000000000000000000000000600082015250565b6000612b7d600e83612410565b9150612b8882612b47565b602082019050919050565b60006020820190508181036000830152612bac81612b70565b9050919050565b600060a082019050612bc860008301886126d0565b612bd56020830187611bae565b612be26040830186611bae565b612bef6060830185612129565b612bfc6080830184611bae565b9695505050505050565b6000604082019050612c1b600083018561248d565b612c286020830184611bae565b939250505056fea2646970667358221220a866bdc93c7139628b00259f7c638b72be624f93066c43ee93a96037d46695d364736f6c63430008140033",
  "linkReferences": {},
  "deployedLinkReferences": {}
}